:0200000407FCF7
:100000009062FC077105FC077905FC079105FC0768
:1000100000000000000000000000000000000000E0
:10002000000000000000000000000000A905FC071F
:100030000000000000000000AB05FC07AD05FC0758
:100040005B19FC07B719FC071D27F007CD14FC0747
:100050004D14FC07AF05FC079313FC07AF05FC0725
:10006000AF05FC07AF05FC072512FC072912FC07AA
:100070002D12FC073112FC073512FC07AF05FC07F7
:100080006D12FC07AF05FC07AF05FC07AF05FC07C9
:10009000AF05FC07AF05FC07AF05FC07AF05FC0784
:0200000407FCF7
:100510000448854604F0BEFD00480047E50DFC0791
:10052000C046C0469062FC0710B50F4906200880FF
:100530000F2000F00CF8012000F009F8002000F076
:1005400006F8002005210907088062B610BD0028C2
:1005500009DBC106C90E0120884004490860BFF3C9
:100560004F8FBFF36F8F70470034005080E100E081
:100570000F4880470F48004704207146084203D0C7
:10058000EFF309800C490847EFF308800A49084750
:1005900004207146084203D0EFF309800749084759
:1005A000EFF3088005490847FEE7FEE7FEE7FEE7B0
:1005B0002905FC071105FC072906FC07C105FC07F6
:1005C00005221207518A8023194351821349036877
:1005D0000B6043684B6083688B60C368CB600369C2
:1005E0000B6143694B6183698B61C369CB610862AD
:1005F0000B48836A4B62C36A8B62036BCB62C36B2B
:100600000B63436B4B63806B88630649082008804B
:10061000908A800601D500BE7047FEE70000FD0706
:1006200000ED00E000330050052109070A8A042389
:100630001A430A820A8A02231A430A820A89402339
:100640001A430A811B4B01221A601B4B08221A8095
:100650004A8A80231A434A82184A0368136143680E
:10066000536183689361C368D3610369136243690B
:10067000536283699362C369D36210631048836ACB
:100680005363C36A9363036BD363C36B0B4A4032F8
:100690001360436B5360806B9060888A800608D536
:1006A00000BE488A012280088000D203104348829D
:1006B0007047FEE780E200E0003300504000FD0795
:1006C00000ED00E0F8B503460C4601201546002178
:1006D0002B4E0246412B3BD00ADC012B16D00222C6
:1006E000072B26D0402B23D12078022824D32AE0C0
:1006F000422B33D0432B37D0442B19D120780028FC
:100700001AD01F48407B2870227010E006221D4935
:100710001D485DF7EFFC0627002802D006221A4983
:1007200001E00622B11C28465DF7C0FC27700020BE
:10073000F8BD2078022802D221700420F8BD30785C
:100740002870707802E0307A2870707A6870DBE781
:1007500020780028F0D00A48807AD4E72078002852
:10076000EAD00748C07ACEE720780028E4D0307B72
:10077000C9E7002070470120704701207047000042
:10078000D650FC0790E1F1072848FD07704770B587
:100790000D46002442F7EFF82855641CE4B2202CE3
:1007A000F8D3002070BD10B55DF76EFC10BD10B51C
:1007B0005DF773FC10BD704770477047064988426B
:1007C00000D000BE05210907488A01228008800068
:1007D000D203104348827047111111112448017847
:1007E000002902D080214170704722490020087002
:1007F0002149C87070471E490A78002A03D0002892
:100800000CD002200BE0002801D0022000E00120E3
:100810001849087018490120C870704701208030BD
:1008200048707047002805D0012804D0022804D160
:100830000120E0E7D2E70020FBE770470C48C078D2
:1008400070470020EFF31081012282F31088052207
:1008500012071289120605D40848028901231A4397
:1008600002811846002900D0012181F310887047C9
:100870000448FD07B477FD075877FD0700330050A3
:1008800070B505200007018930229143018101895B
:10089000802211430181018989088900491C018155
:1008A0000189082319430181D3490C8814430C8022
:1008B000448A9C4344820589402425430581058A56
:1008C0000426B5430582858AAD07FCD5CB4E0025AD
:1008D00075610E8801252E430E804D89AE05C84DE9
:1008E0000E8801D52E4300E0AE430E800D88782699
:1008F000B54328350D800D88062635430D80458A81
:100900001D4345820B8893430B800289A2430281D9
:100910004889800503D5B8490520603188800120C9
:1009200080070168821591430160B64801683F2243
:100930005202914342148918016001680203114375
:10094000016070BD10B5B04900200968572901D970
:10095000573908B2C10F081840103D21484300B272
:10096000C10701D01F3000B2A849884200D808460C
:1009700080B25BF7BFFD10BD10B59F494888C00627
:10098000040F488801221043488048881E22904363
:1009900048809F484B0143800523038003885B0701
:1009A000FCD480884B88934314334B804B885B087E
:1009B0005B004B804B889343620013434B8010BD18
:1009C00070B594490120C863C86B0028FCD1012090
:1009D0008007C069894C00212269904200D22161C0
:1009E000A2780125002A04D0A1702061FFF7C4FF7E
:1009F00011E021691922411AD201914211D32061DB
:100A0000FFF7BAFFE188884201D9411A00E0091ACC
:100A100089B2182905D3E08004F02AFA002800D111
:100A2000A57070BD10B548F72BFA10BD10B548F78A
:100A300036FA10BD714B0020197800290DD0754988
:100A40000122CA63CA6B002AFCD101218907C96946
:100A5000714A1268914201D2012070470021197039
:100A600070470020704710B56C4900200860FFF700
:100A700069FF01208007016B49004908016310BD2F
:100A800008B55E4988805C494A8801231A434A8038
:100A9000002200920099491C00911429FADB0521DB
:100AA00009074B899B089B005B1C4B814B895B06AC
:100AB000FCD54880192080010092521C009282428D
:100AC000FBDB488980088000488148890006FCD506
:100AD00008BDF8B55248C82101800024448051481F
:100AE0000827478000F09CFA434820304088C046E1
:100AF000C0464248012101703F4860304188C90822
:100B0000C90041803C4E718989050AD54188C213CC
:100B10000905090D891841804188782291434031A7
:100B2000418005252D076888002803D1374888387B
:100B3000FFF7A6FF70884008400070803A480460C4
:100B40006A8A40210A436A826A8A8A436A824461C5
:100B50003649816201210904C16228888021084345
:100B6000288000940098401C00906428FADB002044
:100B700000F05CFD2148203000F034FA2C490A8A4C
:100B80001E484281498A818100F02CFD00F05AF80C
:100B900002F024FF012041F7F4FEFFF771FE254823
:100BA000006841F787FB2448C47004710120800766
:100BB000016882151143016000F0E2FDFFF70EFEAF
:100BC00002F0ECFA02F067FFFFF74DFF1B4913201C
:100BD0000860FF201A49913008600B494F200860D7
:100BE000EC827088E0218843A03070800C49C820D6
:100BF00008800C484780F8BD200000500848FD07D9
:100C000000100000000200405449FD07E20400000B
:100C100000160050C0000040405CFC07AC76FD07A9
:100C200000310050003300500000F407204F101A2C
:100C300000FEF8074C76FD075877FD075849FD0779
:100C40005C49FD0770B5204C204920465DF747FA06
:100C500005211F4849025DF742FA03F0BBFF1D481A
:100C60000025058030221C491C485DF71FFA1C48EE
:100C70001D4905701B4808601D491C4808601E4935
:100C80001C4808601D490A2008701D481D49057050
:100C9000322008701C49052008601C4A012111609F
:100CA0001B4908601B49062008601B490720086093
:100CB0001A4908200860FF201949073008601949BF
:100CC00008601948046070BD005CFD0778160000DC
:100CD0000076FD073848FD0758ECF107FC76FD0764
:100CE000F976FD072453FC075076FD07E450FC0716
:100CF0005476FD076852FC075876FD07B476FD0769
:100D0000B576FD07DD76FD075C76FD076076FD07AD
:100D10006476FD076876FD076C76FD077076FD0743
:100D20004876FD074476FD074C76FD07F8B50228A6
:100D300001D003284ED1974A136904210B43136154
:100D400005242407628A20239A436282228A02238E
:100D50001A432282904E0027102202287578608A5A
:100D600039D010436082608A084360827068C01C7A
:100D700083088A480760628A40210A436282628A45
:100D80008A43628247618649816201210904C16206
:100D9000218880200143218000970099491C0091FF
:100DA0006429FADB618A1022114361827B495B1E50
:100DB0004B6121888143218003205AF783FD00285D
:100DC0000CD00120F070208A0F21090288432902EB
:100DD00008432082F8BD90436082EDE7F7703078D9
:100DE0000543F0E708B500F080F8FFF772FE05252F
:100DF00000262D07042709E00421684600964CF7D9
:100E0000F9F8002814D0FFF7DBFD11E0288900066F
:100E10000ED501208007006B000409D461480078DA
:100E2000C00705D15BF7D9FA5F4800780428E3D002
:100E300072B600F053FE042806D002280BD0032817
:100E400009D001284BD04BE058480078012801D048
:100E5000032000E00220694608700446288A3843CF
:100E600028822046FFF762FF022C01D0032C18D104
:100E70004F484188FF22013291434180418801223D
:100E80001143418000960098401C00901428FADB22
:100E9000688980088000401C688168894006FCD50C
:100EA0006E80A88A800602D542490820088030BF9B
:100EB000A88A800602D53F49082048803648C07875
:100EC000002807D03C48006801898AB241680320A5
:100ED0005AF7D2FC2F480169B943016100E030BFE5
:100EE00062B6C8203549088090E7F0B53448354EE1
:100EF0000827354A354BB04201D3394608E09042C5
:100F000001D30C2104E0984201D30E2100E00F210F
:100F10002F4C304D204864192F4D817064190125E4
:100F2000ED034460AC4201D8012406E00325AD0383
:100F3000AC4201D8032400E00F240C434470274C3A
:100F400031468C4223D2264D26467519944205D34C
:100F50008D4201D204271AE00C2718E09C4209D3E5
:100F6000954201D2022712E08D4201D206270EE0FF
:100F70000E270CE09D4201D2012708E0954201D2E4
:100F8000032704E08D4201D2072700E00F270770F6
:100F9000F0BD000000ED00E03C48FD070000F40754
:100FA000204F101A5877FD075049FD07B477FD0709
:100FB00020000050003300505876FD0700310050EB
:100FC0000448FD070000FD0700C0FC070080FC0787
:100FD0001005FC0734570000000004F89062FC077D
:100FE0000C04000010B5062201495DF75FF810BD42
:100FF000A8FFF8070520000701883022114301806F
:1010000001880322114301807047052000070188F1
:10101000302291430180018889088900018070474E
:10102000F0B585B000268C4C0296029828214843E2
:10103000009600190099890046500099491C0091BA
:101040000A29F7DB0298401C02900428EDDB02F02D
:10105000A3FC814D0021083D2960696001270296AB
:101060000020009002997D484900465A0099384670
:10107000884080B206421DD002982821484300993A
:10108000001989004058411C1BD000280DD0C11701
:10109000009A5DF74FF8029A12015DF74BF82A6843
:1010A0006B6810431943286069600098401C0090E9
:1010B0000A28DBDB0298401C02900428D0DB05B034
:1010C000F0BD00BEE3E7F8B5164604460D460A46F5
:1010D0001F46012000215DF72DF822015DF72AF857
:1010E0005D4B083B1A685B6810401940084300D10B
:1010F00000BE032C00D10424594960014018690046
:1011000008183E43C680F8BD70B504460D460A4631
:10111000012000215DF70EF822015DF70BF84E4A21
:10112000083A1368526818401140084300D100BEC5
:10113000032C00D104244A49600140180121A94030
:10114000818070BD70B504460D460A46012000211D
:101150005CF7F0FF22015CF7EDFF3F4A083A1368A5
:10116000526818401140084300D100BE032C00D142
:1011700004243B49600140180121A940418070BD11
:10118000FFB581B00C4605460A461F4601200021E6
:101190000A9E5CF7CFFF2A015CF7CCFF2E4B083B81
:1011A0001A685B6810401940084300D100BE002E49
:1011B0002146284602D0FFF7C5FF01E0FFF7A4FF54
:1011C0003B4621462846039AFFF77DFF77E770B537
:1011D000012421460A3881400D4688B200F02CF8DF
:1011E00084402048C189A9430C43C48170BD10B517
:1011F00004460A3804280BD82046FFF7E8FF1649B2
:10120000A000A03140188038806D002801D08047B0
:1012100010BD002CFCDBE106C90E012088401249FC
:10122000086010BD0A20E2E70B20E0E70C20DEE7B3
:101230000D20DCE70E20DAE700280BD0411E4840E5
:10124000C003010C002002E04908401C80B20029C4
:10125000FAD17047102070475048FD077E53FC07B5
:10126000003000500014005080E200E010B5FFF79D
:10127000CCFE052000078188CA0B164918D0164BF2
:101280001A88520714D51A88D20711D0188802225A
:101290001043188018884008400018800C68002C03
:1012A00005D0985E0421595E0A229A5EA04710BDBF
:1012B0008088C006FBD5094802881206F7D50122AE
:1012C0008280028880239A43028048680028EED0FA
:1012D000804710BD0449FD07000200500001005086
:1012E00054490A880F239B019A43800102430A80D4
:1012F000704750490A880F239B019A43800102439B
:101300000A80704710B504464A494B4808800020BF
:101310004880062000F046F8204600F050F810BD46
:1013200044484649028802231A430280491E02D3D8
:1013300002889207FAD40021018140897047F8B5EC
:1013400005463F48006800906846FFF7DBFF142021
:1013500000F060F8002D01D0092000E00720FFF721
:10136000C8FFFFF7DDFF0446012000F053F8002618
:1013700068468670FFF7C6FF002D01D0092000E007
:101380000720FFF7B6FFFFF7CBFF2A4900190E80B1
:10139000F8BD2849012008812A480068002800D0AB
:1013A00000477047002809DBC106C90E01208840AC
:1013B00025490860BFF34F8FBFF36F8F704730B57B
:1013C00005001FD01B4C297820880122D2029043AF
:1013D000C9020843208028780128687813D0FFF7D5
:1013E0007FFFA97801208002002921880ED00143C7
:1013F000218009206080E97802200029618807D0D7
:101400000143618030BDFFF774FFEAE78143EFE7F6
:101410008143F6E70AE000BF00BF00BF00BF00BF86
:1014200000BF00BF00BF00BF00BF00BF401EF2D220
:10143000704700000015005001400000A086010028
:101440008853FC070C49FD0780E100E010B50A480D
:1014500080890A49C96A002901D0884710BD042043
:1014600000F001F810BD002805DBC106C90E0120FF
:10147000884003490860704720130050485CFC070F
:1014800080E200E0544930B4884201D0012100E0FC
:101490000021524A4901891808E0838ADB07DB0FE3
:1014A00012D00388541C8D68CC81AB54CA898B89B7
:1014B0009A42F2D382885208520082808A69002AB6
:1014C00002D0C88930BC104730BC704710B54448C2
:1014D00000F001F810BDF8B53F4D404E044620899C
:1014E0000007000F062826D009DC012840D002287A
:1014F0001DD00428F3D12046FFF7C4FFEFE70728EB
:1015000028D00C28EBD1AC4201D0012000E0002013
:10151000400187192046FFF7B5FFA1884908490017
:10152000A180B9690029DAD0F8898847D7E7204631
:1015300000F01FF8D3E72046AC4201D0012100E0C3
:101540000021490189190A69002AC8D0818A9E238D
:1015500019400BE02046AC4201D0012100E00021FF
:10156000490189190A69002AB9D001219047B6E7D3
:10157000F8BD194930B4884201D0012100E00021B2
:10158000164A490189180EE003891B069B0F032B9D
:101590001BD0838A9B06DB0F002B95D0531C0C6855
:1015A000CB80A25C0280CA888B889A42ECD3828866
:1015B00002239A438280828880239A4382804A69E8
:1015C000002A81D0888830BC10477C231B5A9B0797
:1015D000DB0FE1E778E70000001000501049FD073D
:1015E0000011005018B51B4900220A6005200007B1
:1015F000448A40231C434482448A9C4344824A6177
:10160000154B8B6201231B04CB62048880231C438F
:1016100004800092521C0092642AFBDB0A68D20804
:10162000D2000A6001889943018018BD052109078D
:101630000988090600D400BE06490A88520700D06E
:1016400000BE002802D0FF20023000E00120086028
:10165000704700000000F407204F101AF1B592B057
:10166000644E65490496088AB41C0C9089220520B2
:10167000000702810122614B52031A8002888023F5
:101680001A4302800288920892000280088A02228D
:101690001043088200F00DFB41F792F941F796F9EB
:1016A0000020694601E08888401C8880888891284D
:1016B000F9D3534801880991418810915149CA884A
:1016C0000F920A890E92C2880D92408B08904E4864
:1016D000408807904888069000F05BF80025B0B27B
:1016E0002B468446494861464180FF218180012183
:1016F0000180C188C907FCD10A460846049E275CC0
:10170000365C7E40F607F60F8E401643491CC9B280
:10171000F2B2082905D112994A556D1C0021ADB2CB
:101720000A46354FC82620373E801030FF2680B24B
:10173000B600B042E2D95B1C9BB2022BD2D32E483A
:101740000C9901823249002008802D4809990180B6
:10175000109941802B490F9ACA800E9A0A810D9ADE
:10176000C280089A4283284A079850800698488089
:1017700005200007028880218A43028013B0F0BD53
:1017800010B52448FFF76AFF2248006841F7F9F8CE
:1017900010BD08B51A49002008804880194A1E4B20
:1017A000D380FF23D2331381C880C3215180184ACC
:1017B000082111806946088003E06A461188491CA7
:1017C0001180694609889129F7D36946088003E0AA
:1017D0006A461188491C1180694609889129F7D306
:1017E000694601E00888401C088008889128F9D3E0
:1017F00008BD00001001FC07E0300050000200406E
:101800000024005060280050002600500035005091
:1018100020200050785CFC0780800000F8B501268D
:10182000B607B56B2846FFF701F9984C21694718B0
:1018300000202061964938465CF7BEFB9549486018
:10184000934A5043381A00D0101A80B20860306BA7
:1018500008218843084330638F4805608F4800683B
:10186000002810D0A8420ED28D49097800290AD14B
:101870006168281A4018E168821D8A4201D2801DE1
:1018800000E008466060F8BDF8B5FFF7BEFB002633
:101890008348052706700425824C35E02188042002
:1018A00089088900891C2180608020882843208045
:1018B000FFF7A0FB00E000BF20884007FBD4FFF744
:1018C000A4FBE088A188000408187749401805287F
:1018D0006E480ED24188491C89B24180142918D320
:1018E0004680416882684B1E934200D91A46426086
:1018F0000FE046804168C3688A1C9A4200D21346B2
:10190000436067480121017038467F1EFFB20028FE
:10191000C4D1052000074189890708D04189890879
:101920008900418161494A88520852004A800189F0
:10193000802211430181018AA9430182818A89079A
:10194000FCD500F0C3F8012080070169490700D5E4
:1019500000BE01694907FCD5F8BDF8B50526360774
:101960007089800720D0B08A400701D502F036F890
:101970004E4D28888027384328804A4CFF206080BD
:1019800004202080FFF736FB7D21C900E088A28873
:10199000000410188842F9D90520208044480088A6
:1019A00070802888B8432880424801894907FCD4C0
:1019B000FFF76AFFF8BDF8B5344E0127BD072C6963
:1019C000002C62D0200603D58020A8614BF7BBF91C
:1019D000A00703D50220A86147F77BF9200706D5A9
:1019E0000820A861002047F734F904203070E00592
:1019F00005D5FF200130A861012047F72AF9A0058D
:101A000004D501204002A8614BF706FA600603D511
:101A10004020A86147F718F9E00603D51020A86117
:101A200045F74DFD600721D50420A86121480189B3
:101A30004908490001815AF733FD40F73DFE002077
:101A400030701A484089800510D5707800280DD173
:101A5000194877700088C00708D10120FFF76FFC94
:101A60008B218900884201D902207070E00706D0DE
:101A70000120A8615AF730FD4BF765F93770A006D1
:101A80009DD52020A86100BE99E7F8BD5049FD070B
:101A900071020000400000406C49FD076449FD07E9
:101AA000885CFC070016005061F8FFFF2000005022
:101AB0000C48FD07003300500015005010B540F7EA
:101AC00032FC654880686549486010BD10B540F734
:101AD00056FC624860494068886010BDF8B5002631
:101AE00000F0B5F800270090FEF7A8FE5C4C002837
:101AF00002D12079022801D10020009059480089A4
:101B0000C00711D1FEF796FF00280DD159F71FFE2F
:101B1000002809D0E0780126002805D0052000071C
:101B2000808AC00701D004268FE0208800287DD15C
:101B3000FEF784FE002806D14B48806A002802D0B8
:101B400000F085F80090FEF7FDFEA17868465AF790
:101B500009FB002879D00125AD072869400674D417
:101B60003F48817868464BF745FA00286DD03F49D9
:101B700000200C683E490978022900D132343D49E1
:101B80000A78012A00D121340870E96B1220890AF1
:101B900089020143E963E86B37490840A102084321
:101BA000E863E86B3721C002C00A89050843E8638F
:101BB000324900980426884200D300BEC002642146
:101BC0005CF7FAF9002800D0401E244AC01E611CB0
:101BD0001060884200D1146021480079002801D0AB
:101BE000012100E00021106847F7D9F92448C06AB4
:101BF0008047FEF736FF002802D0FFF7FBF90127E8
:101C0000154C286B0004C00FFBD02068C005FCD524
:101C100020688025A8432060002F01D0FFF7F5F948
:101C200010484189462906D2462200E00DE0154BB6
:101C3000511A19604281FFF741FF20680006FCD568
:101C4000052000070189A94301813046F8BD0E48EF
:101C50000068806A70470000000200406449FD0788
:101C60005877FD0700330050787EFD075449FD0783
:101C7000B477FD075149FD07FF03E0FF40420F0025
:101C8000B47FFD076049FD075876FD0700207047C7
:101C90007047704770470020704701218907086B23
:101CA0000722104308637047704740087038C0B27D
:101CB000704740493E48086040493F484881404895
:101CC000418806229143891C41803E4A6321D1808C
:101CD0003D493A4A0988603A11823C4909880180A5
:101CE0003B480078002802D03A49302008837047EA
:101CF00000B58BB0384A4262384A8262384A426143
:101D0000384AC262384A0260384A0262384A42603F
:101D1000384AC261274800214038426B1F231B0408
:101D20009A434313D218426333480268C3129A435A
:101D30000260026803139A43026068464154491CDA
:101D4000C9B22829FAD301462C482822006840301D
:101D50005CF7ACF9FFF7ADFFFEF70EFE28490880EF
:101D600003F086F80BB000BD12484038416B1F22CB
:101D70001204914342138918416300060168C9089F
:101D8000C900016005200007018989088900491CF4
:101D9000018101890822114301811A48418989057D
:101DA00004D50188782291430831018081E7000041
:101DB0004C05540780000040EBE60000602800500E
:101DC00000260050002C00501448FD071248FD0763
:101DD0007049FD07002400508D1CFC07911CFC0776
:101DE000971CFC079B1CFC07931CFC07A91CFC0709
:101DF000951CFC07AB1CFC07000200404C76FD075D
:101E00000E48FD0720000050FFB5064685B00027AC
:101E10000121282059F7BEFD044628215CF75FF90F
:101E20000025346126E008981E210840B28A8030DF
:101E30000390534B00216F460EC7524800224119B0
:101E400004914B78405D069900F0EAFE0746002DAC
:101E500002D106980088A0804A480499405D4978DC
:101E6000091A0698008808180699002F088027D1BB
:101E70006D1CEDB2444800788542D4D3434D287898
:101E8000A0710898C00701D00120C003079908433A
:101E90002080B08A6080FD20F0820120F081204601
:101EA0002430B0603A4870602046103040F732FE6F
:101EB0002988334800F0CDF8B08A002159F7FBFF9C
:101EC000384609B0F0BD70B504690546264610369F
:101ED0002069002805D0304640F724FE59F7D5FD8B
:101EE000F6E700202861204659F7CFFD70BDF3B515
:101EF00081B00298082800D300BE0124204D254F50
:101F0000224E10E020461421484341190979022944
:101F100008D128580088B84204D1E1B200220298C2
:101F200000F0B4F8641C30888442EBDBFEBDF7B5EA
:101F300082B000690124124D164F144E009010E03B
:101F400020461421484341190979022908D128580B
:101F50000088B84204D1E1B20022039800F096F85C
:101F6000641C30888442EBDB0399009800F008FE83
:101F7000002159F7A0FF05B0F0BD074870470000E9
:101F80001857FC071057FC071457FC071657FC0797
:101F9000E453FC07022900008C53FC07F7B5074601
:101FA00082B00D46FD2000F0D6FD0646046910E023
:101FB0002079B8420CD16079A8420DD03046002279
:101FC0002146103040F71EFE204659F75EFD05E021
:101FD0002468002CECD101E0002C0ED128460830FA
:101FE0000121009059F7D6FC044600995CF777F878
:101FF00030462146103040F7B1FD277165712A4601
:10200000A01D04995CF752F8002005B0F0BD70B532
:10201000064614460D46FD2000F09DFD0369002C88
:1020200000D100BE002D0DD100BE0BE01879B042EA
:1020300007D158792880981D2060002B04D00020FB
:1020400070BD1B68002BF1D10020288020600A2081
:1020500070BDFEB5054600200E4600900124FE4FDF
:10206000019010E0204614214843411909790229C2
:1020700008D128580088B84204D1E0B26A46082145
:10208000FFF78CFF641CB442ECDBFEBD7FB5154648
:102090000E460446082800D300BE03AA02A9304613
:1020A000FFF7B5FF68460289002A00D100BE0399F8
:1020B000002900D100BE5BF7F9FF684605550246CE
:1020C00001893046FFF76AFF7FBD7CB5FD2000F037
:1020D00042FD84680546002C00D100BE687B6A463C
:1020E00001A90C34FFF793FF68468088082800D0C8
:1020F00000BE0099287B08282DD2421C2A736278E2
:10210000002A0A5C02D0D207F4D001E09207F1D590
:10211000A18808318BB2A968CA880102C1200001D8
:10212000083159F745FD06466078002801D0122095
:1021300000E013203070A88861884018B080A08823
:10214000F0803046A288A11D08305BF7AFFF304613
:1021500059F747FD7CBD607800260028A868C28832
:10216000018907D00423BD4859F722FD6188018009
:10217000867007E0B9480623801C59F719FD61886D
:102180004180067159F72DFDA86859F77EFC0021A2
:102190002846AE6000F0F4FC002159F78CFE7CBDAF
:1021A00010B50878122801D0132801D1FFF78DFF50
:1021B000002010BD10B50C46FD2000F0CCFC80883E
:1021C0006188A31D401880B2A18800224DF735FF19
:1021D000002010BDF8B517460D46FD2000F0BBFCF1
:1021E000044680886988401886B2384659F795FEBB
:1021F000012805D0304600F00EFA002802D002E097
:102200000220F8BD00BE694600F044FA002800D064
:1022100000BE0121384659F74EFE0C3D0020A56056
:102220002073684600786073FFF74FFF0120F8BD08
:10223000F8B517460D46FD2000F08DFC0446808859
:102240006988401886B2384659F767FE012805D0DC
:10225000304600F0E0F9002802D002E00220F8BD8C
:1022600000BE694600F016FA002800D000BE012129
:10227000384659F720FE0C3D0020A56020736846C3
:1022800000786073FFF721FF0120F8BD70B5164696
:102290000C46104659F741FE002813D1FD2000F0EE
:1022A0005AFC05460623324608216D4859F780FC42
:1022B000A988628889180180A1884180A17901716B
:1022C00059F78FFC002070BDFFB589B00F460B9801
:1022D00059F723FE002802D002200DB0F0BDFD20EA
:1022E00000F039FC05900020694608720C9802A99C
:1022F000050A388800F0CEF90024694606468C832A
:10230000002825D1FD2001F00BFB43686846007AC8
:102310001422014651430A1D9A5C022A27D15958BA
:102320004D4A0988914222D1082D00D300BE04AA4B
:1023300001A9FFF76CFE68468088002800D100BE26
:102340000498002800D100BE405D694688830224BD
:102350004348A31D001F0B9A0C9959F729FC054609
:10236000388828802E716C80002E16D01AE02946FD
:10237000059800F00DFC014638480423C01E0B9A56
:1023800059F716FC05706946097A418059F729FC0E
:1023900001210B9859F78FFD07E0224607A9681D18
:1023A0005BF784FE284659F71CFC002095E7FFB533
:1023B00085B00C46FD2000F0CEFB03900027684658
:1023C000077008986946060A208800F063F90546F8
:1023D0006088002800D000BE002D71D1FD2001F0E2
:1023E0009FFA694609781423594342680B1DD35C50
:1023F000022B21D15158184A098891421CD10197CA
:102400000297208800F0E1F8002800D100BE01AB5F
:10241000002204A94EF72DF8049821468005C00F2C
:1024200000F0BEF805062D0E4AD168460178E28814
:102430003046FFF72BFE28E000280BD08069844649
:10244000002807D06846A2886188A31D00786546E9
:10245000A8470546019705E00229000007FD000096
:10246000180C00000297208801A94DF77CFD002D73
:1024700026D101980089C00B07D16288A1882088E5
:10248000A31D4DF7DAFD051E1AD13146039800F061
:102490007FFB0146A088079A801D83B23E4859F70A
:1024A00087FB0746A288A11D801D5BF7FFFD6846DC
:1024B00000787880A088B8803E70384659F791FB44
:1024C00004233648079A089959F772FB218801803E
:1024D000857059F786FB002009B0F0BDF8B51D46A0
:1024E00017460E46104659F718FD002815D1FD2055
:1024F00000F031FB0446284804233A461946C01C24
:1025000059F756FB290A0170082900D300BE31880B
:10251000A288891A418059F764FB0020F8BD70B584
:1025200016460C46104659F7F8FC012819D11B48ED
:10253000A179801E002916D021780623090232468F
:10254000083159F735FB0546A07800F095F828804A
:1025500080202871284659F744FB0021304659F75E
:10256000AAFC002070BDA1883246891D8BB221785B
:102570000902083159F71CFB0546A07800F07CF8E9
:10258000288000202871A0886880A288E11D681D2D
:102590005BF78CFDDEE700000AFD0000160C000072
:1025A00002468B880020022B01D00D207047C9887D
:1025B000002A05D00029F9D00129F7D081207047E1
:1025C0000029FCD00229F9D17047F0B589B0044642
:1025D0004DF7AAFC05460026384F14E005A9204611
:1025E0004DF7C1FC002301AA07A905A800964DF7E5
:1025F000ADFD68468088B84203D1641CA0B209B022
:10260000F0BD641EA4B2A888A04202D8E888A04207
:10261000E4D20020F3E7F0B58BB004464DF784FC1C
:10262000264F00260546FF371BE008A920464DF738
:102630009AFC002301AA05A908A800964DF786FD7B
:1026400068468088B84203D16946097D022911D0C5
:102650001A49884203D16846007D022807D0641CCD
:10266000A4B2A888A04202D8E888A042DDD2002007
:102670000BB0F0BD2046FBE710B50446FD2000F08E
:102680006AFA82790021A24202D98088001981B2B7
:10269000084610BD70B504460D46FD2000F05BFAFB
:1026A00081888022A14206D880790818A04202D9E8
:1026B000601A28700022104670BD00000328000038
:1026C00030B503460120002103241A46CA40D20730
:1026D00004D04D0022466D1CAA401043491CC9B2CB
:1026E0000929F2D330BDFFB585B005460E981E46C8
:1026F0000088FFF7E5FF049030461E210840A98AB4
:102700004B4A0023803001910093029203901323DF
:1027100004AA484906984DF76EFF070027D101210A
:10272000202059F737F9044620215BF7D8FC2C61AB
:102730000698008820830E9800886083F00701D0F7
:102740000120C003079908432080A88A60801420D4
:10275000E8820120E88120461E30A8603648686083
:10276000201D40F7D7F9A88A002159F7A4FB384665
:1027700009B0F0BD70B5046905466068002805D051
:10278000201D40F7CFF959F780F9F6E700202861BE
:10279000204659F77AF970BD704770472448E430F5
:1027A000704730B50446228B0920521C93B2648BCB
:1027B00000222546D540ED0706D05D1C8D4201D193
:1027C000104630BD9B1C9BB2521CD2B2092AF0D3DA
:1027D00030BD10B50346008B5B8B401C80B20022DD
:1027E0001C46D440E40706D0914202D1401C80B27E
:1027F00005E0801C80B2521C52B2092AF0DB092A83
:1028000000D1002010BD02460020802901D98D2072
:102810007047062A06D0072A07D0082AF8D10729C8
:10282000F5D170470829F2D170470629EFD37047D8
:10283000EC53FC070A180000F854FC07FFB581B000
:102840000C46142000F087F921780746092935D273
:10285000FFF7BFFF00282FD061782078FFF7D3FF64
:1028600006002CD17D680DE028792178884208D1B6
:1028700000222946381D40F7C5F9284659F705F9C1
:1028800002E02D68002DEFD160780121083059F762
:1028900081F86178054608315BF721FC20782871C2
:1028A000607868716278A11CA81D5BF7FFFB294660
:1028B000381D40F753F902E0822600E0812602230A
:1028C0005248039A049959F773F9217801704670B8
:1028D00059F787F9002005B0F0BDFFB581B00020A1
:1028E00000900E46039859F718FB002802D00128E3
:1028F0004CD04DE0142000F02EF907463188FFF748
:1029000050FF05464248092D36D27C6803E0217904
:10291000A94203D02468002CF9D117E0002C15D06F
:102920006379039A9B1D049959F742F9054630884B
:10293000288000202871607968806279A11D681D57
:102940005BF7B4FB284659F74CF921E03D77049832
:10295000010A7977384600F01BF901462B4801231C
:10296000401C039A59F724F9057059F73AF90121E7
:10297000039859F7A0FA0BE00623039A049959F734
:1029800017F93188018080210171DCE70220009075
:102990000098A0E7F8B517460D46104659F7BDFA5E
:1029A000012831D1142000F0D6F80446017FFFF74A
:1029B00010FF0646217F2A781548914214D1617F85
:1029C0006B7809023A4608319B1D59F7F1F8044625
:1029D000068000202071687860806A78A91C601DDC
:1029E0005BF764FB204609E0617F062309023A4653
:1029F000083159F7DDF806808021017159F7F1F8A7
:102A00000021384659F757FA0020F8BD011400009C
:102A1000140C0000F8B50025804EFF27002818D0C0
:102A20000024182060438719F88A00F0E9F800288C
:102A300002D0416838468847FF20F8827D60BD603B
:102A4000FD81387D59F77CFA641CE4B2202CE8D370
:102A5000F8BD00242046182148438119224610322F
:102A60000D618A82CF824D608D60CD818D81355020
:102A7000087D59F7EEF9641CE4B2202CEAD3F8BDC6
:102A8000F3B5054681B00026408800F0B9F8010092
:102A90000AD0624F6A88002018234343DB19DB8A7F
:102AA000934203D1422628E0402626E0401CC0B2D3
:102AB0002028F1D3002418206043C019C08AFF28C1
:102AC00006D0641CE4B2202CF5D3202C14D014E0E2
:102AD00028460830009018206043C0190E686B78B3
:102AE000AA880746A91DB0470600EED16888F8827B
:102AF0000298B98A0180E8E74B263046FEBDF8B55A
:102B0000464E07460024182060438519E88A00F0E5
:102B100077F8002803D08268394628469047641C1D
:102B2000E4B2202CEFD3F8BDF3B53C4E81B00F4694
:102B30000024182060438519E88A00F061F8002815
:102B400004D0C3683A46284601999847641CE4B209
:102B5000202CEED3FEBD034610B500202F4A0146BF
:102B600018244C43A418E48A9C4204D11820414301
:102B70008818006910BD491CC9B22029F0D310BDC6
:102B800042885004400CD20B01D009020843704720
:102B900002885004400CD20B01D009020843704750
:102BA00030B5FF21020AC4B21C4B00201825454352
:102BB000ED18AD8AA54204D118214843C018C18A36
:102BC00003E0401CC0B22028F0D31002084330BDFF
:102BD00030B5FF21020AC4B2104B0020182545432E
:102BE000ED18ED8AA54204D118214843C018818A06
:102BF00003E0401CC0B22028F0D31002084330BDCF
:102C0000014610B50020C9B2142904D0FD2901D114
:102C1000FFF7B3F910BDFFF7C1FD10BD7449FD0703
:102C2000FFB58FB000241F461B9E1A9D7E48694643
:102C3000099413460884002A05D0042219460AA8DC
:102C40005BF734FA02E00020C0430A900F980A991B
:102C5000401C0B90C0B207E00A460241D20701D0E7
:102C6000641CE4B2401CC0B2B842F5D318204443FF
:102C70002018032158F78EFE044610980188218001
:102C8000199961800F981421484341190879022845
:102C90000DD0042830460CD0402210432071096921
:102CA0001022A01D5BF702FA0B98C6B272E02671E3
:102CB000F5E72022F1E70A983041C00768D0304696
:102CC000142148430D9040190C900079022804D03B
:102CD000042813D010283DD056E0182102A85BF735
:102CE000FEF90D9828580178684601720D98285809
:102CF0004178684641720C9880681CE0182102A84F
:102D00005BF7EDF90D9828580178684601720D9827
:102D100028584178684641720D982858817868464D
:102D200081720D982858C1786846C1720C980121AB
:102D300080688904084306900C98818968468183DD
:102D4000182109980A464843001902A918305BF770
:102D5000ADF919E00D981822295809985043001927
:102D60000490102218305BF7A1F90C9904988A6836
:102D70000121C9040A430146283110465BF7D1F905
:102D80000C988189049881850998401CC0B20990EB
:102D9000761CF6B2BE428ED30998607120464DF77C
:102DA00072F80390002838D1109821880180002003
:102DB00009900B98C6B2BE422FD20A983041C00784
:102DC00024D009981421401CC0B2714309904819BD
:102DD00002908089000419D40298C089002815D077
:102DE00002980079022806D16858022208A95BF7E8
:102DF00081F900280AD002982288C18903690998BC
:102E0000101880B200224DF718F90390761CF6B224
:102E1000BE4202D203980028CFD0204658F735FE94
:102E2000039813B0F0BD00000328000010B500F0B7
:102E3000A5FB00F01DFA0020FDF7F4FC10BD0C21ED
:102E4000254A10B5414389188978FF2902D000F03E
:102E5000B2F810BD00F03AFE10BD10B500F0A2F8B7
:102E6000002801D000F032FE10BD10B500F02EFE9B
:102E700010BD10B519490A780270401C491C5BF757
:102E800015F910BD1549498C018070470821018052
:102E900010214180002181807D21C180704770B563
:102EA0000C46017800250D4B002904D0012909D0DA
:102EB0004820207070BD8278011D1A70581C5BF785
:102EC000F5F801E040885884257070BD0120087035
:102ED00000204880888070478C4CFD07AC4CFD0773
:102EE0000021F44A05E0834201D101207047491CCA
:102EF000C9B20C234B43D35CFF2BF4D100207047A5
:102F000070B5EC49EC4C0E460C36EC4D0DE0521809
:102F10005268002A07D0C2B20C235A43511849689C
:102F2000401C60702DE0401C607060780C224243B1
:102F30008B5CFF2BEBD10AE089194968002903D08B
:102F4000FFF7CEFF002809D02078401C20702178A0
:102F50000C204143705CFF28EED117E020780C2153
:102F6000414389194968401C20700AE04919C96821
:102F7000002909D0C1B21C2251434919C968401C1B
:102F8000A0708847002070BD401CA070A0781C2154
:102F900041436A5CFF2AE9D10020A0706070207074
:102FA000012070BD10B50121042058F784FFFFF700
:102FB000A7FF10BDA4E7F8B505460024BD4E0AE002
:102FC00080198168002904D0641CE4B2284688472F
:102FD00001E0641CE4B220460C214843315CFF2927
:102FE000EED1B44E00240C3609E08F19B9680029DF
:102FF00003D0FFF775FF002809D0641CE4B20C2150
:103000006143705CFF28F0D10024AC4E10E0641CDA
:10301000B968E4B228468847F1E7801901690029B8
:1030200004D0641CE4B22846884701E0641CE4B282
:1030300020461C214843315CFF29EED1F8BDF8B58C
:103040009D4DE868002835D15223042209219C486F
:1030500058F7AEFD0446E8600D202070002666702B
:103060009848A080E08007202072A672012060723C
:103070001620E072024620460C3093A107465BF70B
:1030800015F8E8682B210E54C07A21462C310F30F8
:103090001F2806D8E07A0A21C219204690A30B30D7
:1030A00006E02B20005D8EA3421820460A212B301B
:1030B00000F0EDF8E868F8BDFFB5074680481E4609
:1030C0000D4681B0412304220921401C58F770FDB0
:1030D00004461020207065702A463946A01C5AF715
:1030E000E5FF2120065520463246223003995AF743
:1030F000DDFF204658F775FD05B0F0BD70B56E4E8A
:1031000004468500361D7059002816D121020E2371
:10311000042276480A3158F74BFD09210170002C32
:1031200000D000BE70511021818008214180002113
:10313000C1807D22028141818181705970BD70B54D
:103140005D4EB068002827D15D482C230422092158
:10315000093858F72DFD032101700A21B060417034
:1031600017210184002585760446458010210A3008
:103170005AF7B5FF2021E176A583E5835C49658494
:10318000488FFB22FB2800D91046E0845948898FDC
:10319000814200D808462085B06870BD3EB5002544
:1031A0004449009501950C223431684602955AF73E
:1031B0007DFF41480C22183069465AF777FF3E4C94
:1031C0000A223834227046A1601C5AF76FFF394931
:1031D00065842431042058F73CFE0021042058F770
:1031E0006AFE3EBD70B50D460102404814462C23D0
:1031F00004220C380A3158F7DBFC014620310D72ED
:103200004C7258F7EEFC70BD19E710B5FFF717FFC9
:1032100058F7E7FC28490020C8600221042058F72D
:103220004AFE10BD10B50446FFF768FF58F7D9FCF9
:10323000214A0020A100121D505010BD10B5FFF70B
:103240007EFF58F7CEFC1C490020886010BD1A4A4A
:10325000002124324B00D35C834203D14800801804
:1032600040787047491CC9B20A29F3D3042070473B
:10327000114910B50020FF232431042442008B544F
:103280005218401CC0B254700A28F7D310BD70B554
:103290000646481C1070092015460C465070224600
:1032A0001946A81C5AF702FF3078A41C0019307088
:1032B00070BD00001055FC07744CFD07E055FC077D
:1032C0000D0D00004C04000003030A181107595AA1
:1032D00008E4862A9E8FE911BC7C984342180000BE
:1032E00053414E4B45542D424C4500000E0E0000FC
:1032F000A479FD074808000010B5104658F70DFEE8
:10330000002802D000BE002010BD012304220921A4
:10331000964858F74DFC0121017058F762FCF2E71E
:1033200010B50C780E2C13D008DC012C12D0032C15
:1033300016D00C2C0CD00D2C08D119E00F2C07D076
:10334000112C05D0122C03D0132C01D000F00BFC53
:10335000002010BD4878002805D1FFF76FFFF7E780
:103360004878002801D000BEF2E7FFF776FDEFE7CE
:10337000487800F0E5FBEBE7F8B51C4610460E4632
:1033800058F7CBFD022802D000BE0020F8BD240A69
:1033900000D000BE0C202746474375483D18AC704E
:1033A000FF2C15D00121E9700321042058F783FD7B
:1033B0006F483188C153707A28713146681D0622E2
:1033C0000A315AF773FE012200212046FFF70AFF57
:1033D0003146204600F08CFBD7E770B50D784C786D
:1033E000092D04D0002C00D000BE00F0BCFB002052
:1033F00070BD70B51D4610460C4658F78EFD2A0A62
:10340000032802D000BE002070BD0C204243584863
:10341000FF21101881700021C170204600F094FB3C
:10342000F1E7F0B508780025524C89B01F461646E2
:10343000002804D0012817D0022827D129E06846A7
:10344000FFF717FD684603783246394620460A33AF
:1034500058F7AEFB0446057068460278411C62804E
:10346000201D5AF723FE2BE069460D806846FFF7C2
:1034700009FD0A2332463946204658F799FB0121B7
:10348000017069460988418058F7ABFB002009B0FC
:10349000F0BD0A233946204658F78AFB04466846A1
:1034A000FFF7F4FC022020706846008860806846C0
:1034B0004088A08068468088E0806846C088208177
:1034C0002046E1E70020704738B50C4648206946A1
:1034D00008701D0A2046FFF7E2FC26482902022355
:1034E0000422801C0A3158F763FB69460978417051
:1034F0002178017058F775FB002038BD10B51046D3
:1035000058F70BFD012809D1FFF754FD002805D01D
:103510000221042058F7CFFCFFF7A7FC002010BDC4
:1035200070B518460D460146E1200623000158F704
:103530003FFB044601462846FFF7C8FC204658F7E3
:1035400050FB002070BD0020704700207047002015
:103550007047FEB51C46089B0D26074D6F4668C791
:103560001346224600F0B5F8FEBD0000020D000033
:103570008C4CFD070B0E00005055FC07704710B532
:103580000A23042209210B4858F712FB04461B208A
:1035900020701420FFF75BFE607014206080042010
:1035A000A0800020E080FF2174312181204658F75F
:1035B00018FB10BD1B0D0000F8B50E460978184623
:1035C000002425460B005AF7C5FD09060912091506
:1035D000150C180F1B000B241AA512E007241CA5BC
:1035E0000FE008241CA50CE007241EA509E00A240E
:1035F0001EA506E00D2420A503E0062422A500E078
:1036000000BEA31C0146224858F7D2FA074630787C
:1036100038707C70002C04D022462946B81C5AF71A
:1036200045FD384658F7DDFA0020F8BDFEB51C46CA
:10363000089B0126174D6F4668C71346224600F0C7
:1036400048F8FEBD4469616C6F672053656D690081
:103650004441313435383500123456FFFE9ABCDE11
:103660000000000001D2008005000100312E302E44
:10367000302E302D4C450000765F362E302E313402
:103680002E31313134000000FFEEDDCCBBAA00004A
:1036900003140000C855FC07FFB583B01E4E00247C
:1036A00001AFA0003558002D00D100BE009703A83F
:1036B0000FC8A847002809D0641C042CF1D303AC20
:1036C0000FCC00F050FA002007B0F0BD684600793A
:1036D000FAE7F8B5089C9C46079D0346002C19D0D4
:1036E000641E17D40D4FE600AE5B9E4201D0BE4271
:1036F0000ED1E3005B195C68002C00D100BE002CE9
:1037000008D013466246A047069908700020F8BD0D
:10371000641EE8D50120F8BDD055FC07FFFF00006E
:10372000052000070089000608D501208007006BEE
:10373000000403D403480078C00701D0002070477C
:10374000012070475877FD077047704770B50D46E8
:103750000446FFF7E5FF002806D06B482A460421FF
:10376000201858F777FC70BDFDF76BF86648042207
:1037700008231146801E58F71BFA4560047058F75D
:1037800030FA70BDF8B5614C069D06190024002E74
:1037900026D0012E0CD05F4F5D4B3A46283A022EC0
:1037A0000AD05A49C91E41180A2927D30120F8BD59
:1037B00000F080F8287039E00878461E092E0DD8F0
:1037C0008000001F105898422FD1B0003B58135072
:1037D0004A6808781146FFF7B9FF26E000BE24E0EA
:1037E0004A68002A02D04C48824200D300BE0878C2
:1037F00045494018042158F72DFC16E04349891E1D
:103800004018C0B2411E0929E8D88600B218803A93
:10381000D16F002909D0994207D0404B994204D07A
:10382000D467F219803AD46788472C700020F8BD1D
:103830000A46010010B5384801D0814200D300BECD
:103840000020344B283B84001C59002C04D0401C21
:103850000A28F8DB002010BD84001A51401C040621
:10386000240EF7D02046FFF771FF204610BD70B53B
:103870000446401E09281BD82648A10028380D18E8
:10388000803DE86F002813D0244EB04210D01E486F
:103890000421201858F728FC1B480422082311464D
:1038A000401EEE6758F784F9047058F79AF970BD16
:1038B00000BE70BD10B508780C46411E09291FD8FE
:1038C00082001448121F28388258144B9A4205D19E
:1038D0000022890042502830425012E089004058AE
:1038E0000B4988420DD1042208231146064858F797
:1038F0005FF9217801706168416058F772F900E062
:1039000000BE002010BD000003040000FFFBFFFF0D
:103910004B37FC07FC4CFD07FCFF3F004937FC0719
:103920000021154A06E0834203D11C204143881838
:103930007047491C1C234B43D35CFF2BF3D1002061
:10394000704710B51823042209210C4858F730F9A4
:1039500004461B202070FD20FFF779FC6070FD20DD
:1039600060800420A0800021E180E1602161A182CB
:10397000204658F736F910BDE055FC071B0D000036
:103980003EB51D46069B0024009313460194029405
:103990002A46FFF79EFE3EBD10B51D48C1680029AE
:1039A00002D00021C94300E00121C160C8174A0FBD
:1039B000C0001043174AC9001468536821431843D4
:1039C0001160506010BD08B501200322009008234B
:1039D000120203210020FDF7D3FB08BD10B505241A
:1039E0002407208A022188432082A08A0007FCD570
:1039F00009484188FF2201321143418001F0D2F889
:103A0000FFF7E1FF608A202188430843608210BDF0
:103A10005048FD074848FD07200000507348417991
:103A2000027909021143491C89B201710A0A4271E3
:103A30006F4A914202D1002101714171704770B506
:103A40006A4CA41FE078000602D525462B3501E01C
:103A5000664DAD1DFFF7E2FFE07806224006400EFE
:103A6000401962495AF722FB604A637925321046B1
:103A700021791F38FFF720FB5E495F48FFF7D8FE2A
:103A8000607070BD10B5594CA41F2078FFF7CAFBB9
:103A90000020A07010BD70B5544D0024AD1FAC7057
:103AA0000521A81D0170FF214170CD218170AB213E
:103AB000C17004714471162250A1801D5AF7F6FAA4
:103AC000162028716C71FFF7B1F970BD10B5494926
:103AD0004948FFF7ADFE4549891F4870FFF794FB41
:103AE00001230622414900F03FF8FFF78EFB10BD8D
:103AF00070B50C4605460C2046496843401880784E
:103B0000FF2816D0394EB61F35707078FFF7AFFE1C
:103B100060880838092805D2A088002802D1E088EA
:103B20007D2808D07D203C49C000FFF781FEB070A1
:103B300001E0FFF7CBFF21462846FFF780F970BD73
:103B4000442800D1C2E7704710B5284CA41FA078C4
:103B5000002803D0FFF78BFE0020A070FFF75EFF68
:103B6000FFF7B4FF10BD7047FEB517460446002BA3
:103B700001D01C2000E01F20E27A1C4E831A204650
:103B80000C30019020302546B61F20350090BB42F6
:103B900009DB019810183A465AF788FAE07AC019FA
:103BA000E072801F0FE0E87A1F22121ABA420CDB83
:103BB000009A80183A465AF779FAE87A8021C019B3
:103BC000E872801F0843F07000E000BEE27A074808
:103BD0003271801D01995AF769FAEA7A03487271C5
:103BE000253000995AF762FAFEBD00002A4DFD0704
:103BF000FFFF00003F3AFC07B80B000003030A1860
:103C00001107595A08E4862A9E8FE911BC7C984313
:103C1000421800008C4CFD07853AFC0770B50E4633
:103C20000446002203214DF796FE05464FF762F841
:103C3000688028464DF7A0FE4FF75CF871888842EF
:103C400000D30846014620464DF77DFF002070BD99
:103C50000246FB4B92009A580120126900290ED0AF
:103C6000517F5E239B5C002B0BD0052906D1517E32
:103C7000090702D5917C090700D400207047917D87
:103C8000EFE70229F9D00429F7D00529F6D1002061
:103C9000EDE7024630B59300E94A0120D258126997
:103CA000137DD47E157F2340547D2C40012901D003
:103CB000022909D1957C527E15402A0704D41A4660
:103CC0002243D20700D10020032901D0042904D1C6
:103CD000590702D4610700D4002030BDFFB5160A91
:103CE000D84CB500615910460A8B01239B0281B064
:103CF0001A430A8358F711F9002852D0132850D0DC
:103D000014284ED0152811D060592D210B5C0122AA
:103D1000D90600290DDA0146A0318F7D002F08D089
:103D20008A753D21304642F765FB3AE0022005B036
:103D3000F0BD190703D50021A0308175F6E7A0304A
:103D40008275029801228178437809021943401C48
:103D50001B39E12900D30022C17883780902194375
:103D6000B94BFF39801C4939994200D30022C178F0
:103D7000877809023943801C1B39E12900D30022CE
:103D8000C178877808023843FF38493898420AD208
:103D9000002A08D0304640F727F83046029940F70D
:103DA00066F80020C3E71E22142130463FF7E0FDED
:103DB00060590121028B89028A430283F1E710B521
:103DC0000446A248008D8007800F012800D0002003
:103DD0006071002807D054F709FC01460622A01D97
:103DE0005AF764F910BD06229949A01DF8E770B58D
:103DF000054600243EF7BFFD2855641C082CF9DB5E
:103E000070BDF8B5022707700126044646700D46BE
:103E100088799049C96988472A210855287900215D
:103E20000007000FA07003005AF794F9070507096F
:103E3000100D100B1000A1700AE0A67026E0032000
:103E400002E0A77004E00420A07001E001281DD06A
:103E5000A888000A801FC0B2A0721F2800D9A172D2
:103E600028463EF73DFE811D2046A27A0B305AF7C8
:103E70001DF928463EF734FE01460622201D5AF75A
:103E800015F928794006C00FE070F8BDA172F0E77F
:103E9000F7B544688CB0254624350395054607469A
:103EA000243548F731FF06464420405B5221484301
:103EB000694909684018C030408969460884012171
:103EC000384643F760FE48F794FD09900E98006964
:103ED0008088000AC10061480818298940185F4994
:103EE0005B315AF769F801466868039D4718403509
:103EF000288906900090A0680099381A400140096E
:103F00005AF75AF80A910098C019401A400140091E
:103F10006946A060098C4900C919891C49014909F1
:103F2000884204D20699401840014009A060014629
:103F30000998081A40014A494009884215D90020C9
:103F40002B89A268401CD21852015209A260EA894A
:103F5000521CEA81A368099A9A1A520152098A42AC
:103F6000EED801B20D9843F7AFFEA1680998081A80
:103F70004201607D5209824210D82A89891849017C
:103F80004909A1602A890A99511A814206D9012159
:103F90000D9843F799FEE889401CE8812989A068BB
:103FA0005AF70AF8F1802889B080208A3081A888E1
:103FB00070810020B081C807C00FB073A88852215B
:103FC00048438E303082304648F7A9FE0398466356
:103FD00020460FB0F0BDFFB51C4900204968012400
:103FE0000A7893B0064621460C2A0CD06A46117313
:103FF00000221192002E09D015990291169D1F2DB5
:1040000066D9402064E0002422461194139902915D
:10401000149DF4E7029989184978012905D01729D8
:1040200003D0182901D0192924D1631E04E003AF5D
:10403000FF5C8F4216D05B1E5BB2002BF7DA15E0F7
:104040002C7EFD071879FD07010700004C7EFD0757
:10405000CF79FD07B47FFD074C76FD0716020000FF
:10406000FFFFFF03002B01DB4A2003E003AB1955E0
:10407000641CE4B20B005AF76DF81D2610101010E6
:10408000101010101026262626262626262626263E
:1040900026261010101010102600119B03E00BAF05
:1040A000FF5C8F4204D05B1E5BB2002BF7DA03E0AB
:1040B000002B01DB4A2006E0119F0BABD95511996B
:1040C000491CC9B211910299895C521C89188AB2A3
:1040D000AA4201D200289DD0AA4200D04A20761CD4
:1040E000F6B2022E01D2002882D017B0F0BD10B572
:1040F0000022134607E084186478012C07D0845C02
:10410000521CA21892B28A42F5D3184610BD8018EC
:104110008378FAE7F0B50646A9B01546002084007A
:104120006318DA789F7812025B783A4352BA1B041C
:104130001A430B5D07241B061A43231A9F0020AB6A
:10414000401CDA510828EAD300218A00901907465A
:10415000C37880781B02034378785BBA000403437A
:10416000B05C10AA00060343601A80001350384662
:104170002230437800781B020343384620304778CA
:104180005BBA3F0400783B43000603430F27781ACD
:104190008000491C13500829D7D358F71BFE01464D
:1041A000304659F794FA00282DD058F713FE0346ED
:1041B00020AA10A9684659F795FE00226846A11A60
:1041C0008B009600C75C7119CF70C75A3F0A8F7079
:1041D000C7583F0C4F70C35820311B0EAB550F23EF
:1041E0009B1A9B00C65CCE70C65A521C360A8E7053
:1041F000C658360C4E70C3581B0E0B70082ADED3FF
:10420000002029B0F0BD0120FBE7F7B500251746D7
:10421000064641232A4629460A2057F7C9FC044688
:10422000002E10D0012E02D0022E0CD105E020224B
:10423000611C00203EF7B8FB04E0621C394601987F
:104240003EF762FB2070204657F7CBFC2846FEBDA8
:10425000F8B5FF48009007680C46002F7BD0054654
:104260001C35287E002876D0012802D0022872D181
:1042700002E02078002819D03889F64900268842C3
:104280003AD1072048F738F9002835D042233E229A
:104290000021F14857F78CFC082101702178002992
:1042A00013D0032141702178817043E0E848022651
:1042B000611C14302E762022044659F7F7FE224660
:1042C000E64930463EF72AFB45E0002146701F22B2
:1042D000531A1B1947185B78491CBB702029F7DB60
:1042E00000213F22531A47181B1920375B78491CBD
:1042F000BB702029F6DB1DE0D6493889491C88426D
:104300001AD1082048F7F8F8002815D022233E22B9
:104310000021D14857F74CFC092101702178002970
:104320001BD0122141700021FF224318491C9A70B2
:104330002029FADB4AF7ECFB2E76402058F7BBF831
:1043400000983EF7EFFB57F776FC009800680028CE
:1043500001D03EF7DEFA0020F8BD002146701F2292
:10436000531A1B1947185B78491CBB702029F7DBCF
:10437000E0E770B5087800250C46012809D01D2813
:1043800010D02B2812D04022194652F7D1FB2846D4
:1043900070BD57F77AFFB24801250460B14853F762
:1043A0005AFFF4E7B0483EF71DFAF0E7AF4801685E
:1043B0000029ECD101210160AD483EF719FBE6E789
:1043C00070B5A44DAB4C223DAB4217D1A248092396
:1043D0002A460021C01E57F7EBFB04460822A649D7
:1043E000401C59F763FE20790821084320710025FD
:1043F000257020464AF78CFB284670BDA04770BD4B
:10440000F1B584B004989D4980000C5804980502C9
:10441000A81D0290002C15D06068818804290CD357
:104420004188861D0C38009101903146049854F75C
:10443000E8FC9349884206D160680C3857F7FBFBCB
:104440000020606073E4F178B2780F02019928438C
:104450001743C880384640383F2819D803223946C8
:10446000049850F755FD0600E6D0B07B0128E3D153
:104470003420B07329460A3104238248029A57F740
:1044800097FBB18941801021017057F7AAFBD3E750
:104490006168342008700221009857F77BFA0546BE
:1044A0003146009A59F702FE6878297800020843DD
:1044B0006168C880E878A978000208436168062F1F
:1044C00008810BD0042F09D06068052F10D00C385C
:1044D00057F7B1FB284657F7D8FAB1E760688188EB
:1044E000052913D3297981726168287988720DE0D2
:1044F000818805290AD329798172616828798872AF
:1045000060688188062901D36979C172606857F7AC
:1045100068FBDFE7FFB587B00E46099857F7FDFC4B
:104520000999090A0391002876D08800534905901B
:104530000D585549B079096B0A225043B4780818D0
:104540003EF7CEFA01906868002808D0012C2DD0E3
:104550000398FFF755FF6868002802D026E0022C78
:104560005AD1B0880127022805D3019841780078F4
:104570000C02044302E04EF7BDFB04464EF7BAFBC3
:10458000A04201D20224002720464C3083B23C498D
:104590003E48099A57F70CFB241D68604480002FA1
:1045A00001D0002000E034206968087068680028A5
:1045B000BAD0811D0091B2880199841C071D019217
:1045C0008088238882189A4209D8009A8018019A14
:1045D00059F76CFD398801980818388009E01A1AD3
:1045E000009BC01859F762FD208838806968342024
:1045F0000870388804280FD30098417802780802A0
:1046000010432188001D884207D280B2208039885B
:10461000814207D9388002E086E0884202D9696881
:10462000342008703888218888427DD168680099D4
:104630000C380190039854F7E4FB69680978002965
:1046400074D10F49884271D003990F0238431FE09B
:10465000287AFD07252000000408000089E7F107FB
:104660004C7EFD07030C0000C3C3C3C35077FD0796
:10467000CC7DFD070DC3F0075CE5F107AC7DFD07C0
:10468000FFFF0000260E0000E078FD07010A000091
:104690000199C88020880221019057F77BF9049086
:1046A0002288009959F702FD049800283CD06968D7
:1046B00000208880019802226B46039907C368682E
:1046C000049B821C011D801D3EF7E4F86968087098
:1046D000049857F7DAF968684188002902D0017810
:1046E000002956D0018940393F2946D80178302920
:1046F00020D00146F64A05980C39105808303EF78C
:104700002DFA69680398891D3EF7D5F84628686830
:10471000018921D00322039850F7FAFB00282ED0FC
:10472000808A00282ED02AE047E0FFE70398FFF7B1
:1047300067FE42E0E749098D0906C90F07D0E6493F
:104740000C380968099A898D89B257F767FA686841
:104750000C3857F770FA12E00322039850F7D8FB91
:1047600004000CD039460A310423DC48099A57F773
:104770001FFAA18941801021017057F732FA0020F9
:1047800068601AE068680022018903983EF78EF895
:10479000F5E70189084640383F280ED803220398E0
:1047A00050F7B6FB002808D0808A002805D1686839
:1047B0000022018903983EF779F8B0793EF783F932
:1047C00000200BB0F0BDFFB58BB006461698002751
:1047D000022821D00D9801881498814278D37188DD
:1047E000084640383F2802D8159850F7D2FB0C985D
:1047F000361D0088149A80190E9959F757FC0C98A9
:104800000188149808180C9908800D98018814984C
:10481000081A0D99088058E100200E9D07906978CC
:104820002C78090221433180E978AC7809022143D0
:1048300071808C46403904242D1D024603468E4665
:10484000402900D32878614604291FD0052914D0B7
:10485000062918D070463F283DD8159850F799FB87
:104860000006000E04D09B48008D0006C00F30D01B
:10487000022301209A4A002712E0697800290FD00C
:10488000984A17230CE0984A0F2309E0522802D0D7
:10489000D22802D002E0142000E01520934A1F2302
:1048A000002A7DD098427BD28000105804900028C6
:1048B000F7D000200890059070884038402803D336
:1048C0002878052430716D1C701D00900498AFE0AD
:1048D000FAE03027ECE03327EAE0522863D00CDC22
:1048E0004B283FD004DC412869D0422859D111E03F
:1048F0004C2820D0502854D140E0632830D004DC2C
:10490000572818D061284CD19AE06C2863D07728BA
:1049100047D109E00098297801700098641C401C78
:10492000A4B26D1C009080E00498401C04900178B3
:104930000898814279D10098A41C401C4108490084
:10494000881C009068782A78000210430880059936
:10495000AD1CA4B2002968D008900020059064E046
:104960000120FBE710222946009859F79FFB009889
:1049700010341030A4B21035009056E0204640307C
:104980001499039088420CD840222946009859F780
:104990008DFB0098403000900398403584B244E08D
:1049A00077E0342741E008222946009859F77EFB3A
:1049B000009808340830A4B20835009035E006228B
:1049C0002946009859F772FB0098A41D801DA4B2D7
:1049D000AD1D009029E01498001B80B20390308830
:1049E000001B001D81B2012007900498401C049018
:1049F0000098401C40084000009004980078572818
:104A00001CD04228CDD100980170090A417000984D
:104A10002946801C0090039A59F748FB0398039994
:104A2000201884B20098401800900498401C04900C
:104A30000078002820D0002F19D01DE04908E2E7B7
:104A40001498001B80B203900098039A401C410800
:104A500049000120009107902946009859F726FB4C
:104A600003980099201884B203980818DCE70D9980
:104A70000988A14200D330E70D980088A04208D3EE
:104A800004990978002904D10799002903D1A0428B
:104A900001D034270CE00D99001B08800C98018888
:104AA0000098801B001F08180C99002F08800CD05C
:104AB0007088042809D0062807D04038402804D33D
:104AC0000E984079707100E0342738460FB0F0BD81
:104AD000AC7DFD074C7EFD075876FD07260E0000D5
:104AE00014F3F1071CF3F10778F3F107B4F3F107BE
:104AF000FFB581B01F4616460C46104657F70DFA13
:104B000000253F2802D02189062908D03B4632469D
:104B10002146019850F7C9FD0546284692E4000752
:104B200001D50225F9E720780028F6D1300AA11D29
:104B30003DF7CBFDF1E7F3B581B00198264C850038
:104B400060590F464068CE8801462431009143F7F2
:104B5000EDFB0099214A40310091C989701A80B259
:104B6000904214D2B14212D060593146406842F7A7
:104B700096FC60590522791C1F3059F797FA019865
:104B800005210002401C80B257F795F9FEBD60591F
:104B90000522791C1F3059F789FA009880883EF762
:104BA00071FCFEBD10B558220D490E4859F77EFA2A
:104BB0000B492C222C390C4859F778FA09480B4933
:104BC000A03001600649543941600649084820393F
:104BD000086010BD704700001879FD07FF7F0000D6
:104BE000F05AFC0720000840C000FC078CBFF1070A
:104BF000FF071000F0B5374887B00189069141885A
:104C0000354D0591A9890491698B344AC9B212883E
:104C10000392334AD289334C029222880192C2888D
:104C20000092314A0126038976037711BB43038141
:104C30004388B7103B434380A889000A000296319D
:104C40000843A88125483821018025480027C781CD
:104C5000107800280DD02548218800687211114372
:104C600021802188090A09024030007D014321800A
:104C700002E0142000F088F9184887800188018834
:104C80000122114301800188C907FCD000E0761E93
:104C90000188C90701D0002EF9D187800D49069AF5
:104CA0000A81059A4A80049AAA81039A02800C4BD1
:104CB000029ADA81019A2280009ACA80002E02D0DC
:104CC000012007B0F0BD018849084900018000209B
:104CD000F7E70000002C0050002500500022005093
:104CE0000024005000200050485BFC074C76FD0774
:104CF000F0B5324885B0018803914188029130496E
:104D00000989304B019119882F4C009127882F4930
:104D1000CE8803256D022E49002202802222428085
:104D2000FF222748D13202812C221A800878FF21E5
:104D3000013100280CD02748228800680A432280CD
:104D40002188090A09024030C07C014321800AE021
:104D50002088084320802088000A00021330208029
:104D6000132000F011F91748002181800288028881
:104D700001231A4302800288D207FCD000E06D1E96
:104D80000288D20701D0002DF9D181800B49039A06
:104D90000A80029A4A800A4A019911810099018089
:104DA00027800A49CE80002D02D0012005B0F0BD39
:104DB00001884908490001800020F7E700240050DD
:104DC000602800500022005000200050002C0050AD
:104DD000485BFC074C76FD0730B564480288032128
:104DE000490234230380002383800488048801253A
:104DF0002C4304800488E407FCD000E0491E0488AA
:104E0000E40701D00029F9D183800280002901D074
:104E1000012030BD0188490849000180002030BDD3
:104E2000F8B5534C6088C6076088F60FC005C50FFB
:104E300060884008400060806088FF270137B843E1
:104E40006080FFF7C9FF002805D0FFF751FF002859
:104E500001D0FFF7CFFE6188A18861884908490029
:104E60003143618061882A02B94311436180F8BDF2
:104E7000F8B53F4C6088C6076088F60FC005C50FBF
:104E800060884008400060806088FF270137B84391
:104E900060803DF795FD3DF799FD00220821022035
:104EA0003DF788FD002800D001206188A188618835
:104EB000490849003143618061882A02B94311439E
:104EC0006180F8BD70B501252A492A020A60BFF346
:104ED0004F8FBFF36F8F28490A6028490B681C0A5F
:104EE000240240231C430C60224980390A60204977
:104EF0004C880626B443241D4C804C882C434C809F
:104F00004C8838252C434C804C889C434C8001288D
:104F10000FD148883302184348804888104348809E
:104F200048882A021043488048880122920390430F
:104F3000488070BD10B5124CE18A124ACBB211897B
:104F4000248BC904890E6404640E001B093141439B
:104F50000120C002401A80B2584340031189000E5C
:104F6000090A09020143118110BD0000002200500E
:104F70002020005080E100E080E200E008E400E052
:104F800000230050002C0050064A4108515CC20723
:104F9000054801D0090901E00907090F1031C18056
:104FA00070470000824DFD07002C0050F8B502024A
:104FB00005464123092134480A3256F7F9FD2721D5
:104FC0000170044600201F233049AA008F581E1A82
:104FD0004936BE5D2718401C7E702028F6DB002075
:104FE0003F238E581F1A4937F65D27182037401C7B
:104FF0007E702028F5DB57F7EDFE0146601C58F760
:1050000066FB002812D10A2000906A460521284636
:105010004EF75AFE28464FF73FFE00996022114393
:10502000CAB20146012328464EF7B8FD204656F77E
:10503000D8FDF8BD70B505460446008914490C3406
:1050400088B088421AD100201F216E460A1AA25C3D
:105050003254401C2028F9DB20223146204659F7E3
:1050600025F800203F210A1AA25C3254401C202857
:10507000F9DB20226946A01859F718F8284646F7A8
:1050800034F908B070BD0000270D00002C7EFD072C
:1050900026200000064C0125064E05E0E36807CCFB
:1050A0002B430C3C98471034B442F7D3FBF734FA47
:1050B000105CFC07405CFC0702E008C8121F08C136
:1050C000002AFAD170477047002001E001C1121F89
:1050D000002AFBD17047F401040070CAEA80D007AF
:1050E00006406432F11CFC07691DFC074BD3F00736
:1050F000A9D3F007B1D3F00701D4F00719D4F00712
:105100002FD4F00751D4F007E1D7F00781DAF00788
:10511000C1D8F007E1D8F00701D9F0073FD9F0076F
:105120004FD9F007FBEEF007D5ECF007F3ECF007F2
:105130000FEDF00729EDF0073DEDF007BFEDF007AB
:10514000D7EDF0073FBEF10749C0F10773AFF00795
:10515000C506FC077B07FC077707FC077307FC07FE
:10516000ED21F007BD07FC071D18FC07670AFC07C7
:10517000250AFC072D0AFC07FF75F007C974F00724
:105180006B75F0077190F1071F40F107152AFC07B6
:10519000812AFC07FF2AFC07292BFC07A12BFC070F
:1051A000D12BFC0700000000B707FC07B907FC077C
:1051B00057BBF0070986F107C747FC07778FF10750
:1051C0005F8EF107F14AFC075366F1077F17F1077D
:1051D00073F9F0078D07FC07D599F0071541FC0717
:1051E000EBB2F0070B42FC075142FC07BF2DF00762
:1051F000532EF0075B78F0072577F007F535F007B9
:1052000000000000A707FC07AF07FC078F07FC079B
:1052100095D5F0078BD6F007D7D6F0078FB5F107F5
:105220002FB6F107BB07FC070000000000000000DC
:10523000000000000000000000000000000000006E
:10524000000000000000000000000000000000005E
:10525000000000000000000000000000000000004E
:105260000000000000000000050000009062FC0744
:1052700000040000A451FD0768020000984DFD07DE
:10528000000400001854FD07700500002003000012
:1052900000A60E0004000000D20000003200000052
:1052A0003C000000010000000100000002000000BE
:1052B00002000000040000000300000006000000DF
:1052C00000000000020000000200000000000000DA
:1052D00000000000030000000300000005000000C3
:1052E00005000000060000000A0000000A0000009F
:1052F000C8000000B80B000002000000B80B00005E
:10530000B80B000010000000D4010000E50100000F
:10531000700200006A0000000400000001000000AC
:1053200020000000504600030003983A6400F40196
:10533000B80BB80BB80B000CB80B120030003000E3
:10534000CD009A011200240030006400B000180063
:10535000280012001200D0070000FFFF000000002C
:105360006400C8000000D0070002444131343538E1
:105370003500000000000000000000000000FF00F9
:105380003F00FF03FF01000001000101091EFC07AF
:10539000C71EFC07EF1EFC072F1FFC07130C0000A5
:1053A000C922FC07150C0000AF23FC07170C0000F6
:1053B000DD24FC07000C0000A121FC0706FD000015
:1053C000D521FC0703FD0000B521FC0708FD000006
:1053D0003122FC070EFD00008D22FC0705FD0000B8
:1053E0001F25FC079C53FC07090000000028000053
:1053F0000100000000000000032800000100000080
:1054000002000000292A0000010000008080000046
:10541000032800000100000004000000242A00000E
:10542000010000008080000003280000010000004F
:1054300006000000252A0000010000008080000016
:10544000032800000100000008000000272A0000D7
:10545000010000008080000003280000010000001F
:105460000A000000262A00000100000080800000E1
:1054700003280000010000000C000000282A0000A2
:1054800001000000808000000328000001000000EF
:105490000E000000232A0000010000000880000028
:1054A0000328000001000000100000002A2A00006C
:1054B0000100000008800000032800000100000037
:1054C00012000000502A00000100000007800000C8
:1054D000E726FC077527FC079927FC079B27FC0795
:1054E000001400003D28FC07130C0000DB28FC071B
:1054F000031400009529FC07E054FC07030000009A
:1055000000004C044C0407010001020304050600DE
:10551000FF00000000000000000000001400000078
:105520007F35FC0700000000FF00000000000000C5
:105530000000000000000000C055FC07D04CFD0733
:105540000400010000000000000000000000000056
:10555000010D0000F932FC07000D00002133FC07AB
:10556000000E0000DB33FC07010E00007933FC075E
:10557000030E0000F333FC070A0E00002334FC077F
:105580000C0E0000C934FC071C0D0000FD34FC07A4
:10559000100D0000C534FC070F0E00002135FC077C
:1055A0002C0E00004735FC07120C00004B35FC07A1
:1055B000080E00004F35FC07FFFF00009936FC077E
:1055C000B855FC070100000002140000B935FC07C3
:1055D0005335FC078537FC072D36FC078139FC075E
:1055E000FD0000001857FC072D0000004339FC07A0
:1055F000000000000000000000000000FF000000AC
:10560000000000000000000000000000000000009A
:105610000000000000000000595A08E4862A9E8F0E
:10562000E911BC7C9843421820EE8D0CE1F04A0C45
:10563000B325DC536A68862D4F43313C939242E692
:10564000A876FA3BEFB4875A17B967984C664C01B5
:10565000963331B1915900152368EC521E6244749F
:105660009A1BD18BAB75B66E9EE7BA08B9A948AB49
:10567000A1AC031C2E0D296C28D5E1C1E1C5472939
:10568000B55765C3BA47159E8C09E0D18154424095
:105690008E4FD2B377E32A77595A08E4862A9E8F31
:1056A000E911BC7C7C46421820EE8D0CE1F04A0CDE
:1056B000B325DC536A68862C4F43313C939242E613
:1056C000A876FA3BEFB48759595A08E4862A9E080F
:1056D000E911BC7CD047421817B967984C664C0159
:1056E000963331B1915900142368EC521E62447410
:1056F0009A1BD18BAB75B66D28D5E1C1E1C54729A1
:10570000B55765C3BA47159D00280328022901290A
:10571000001A212D03002D000857FC07100000007F
:1057200001000000100010001856FC070A57FC0783
:105730000200000001000000000000000000000066
:105740002856FC07100000000800020001000000BD
:10575000000000000E57FC070200000001000000DE
:105760000D000D00005CFC070A57FC07020000005A
:105770000100000000000000000000003856FC0797
:105780001000000008800000018000000000000000
:105790000E57FC070200000001000000090009008C
:1057A000D85BFC070A57FC0702000000010000005C
:1057B00000000000000000004856FC071000000038
:1057C0000102000002000000000000000C57FC076E
:1057D00002000000090002000200000000000000BA
:1057E0000E57FC0702000000010000000B000B0038
:1057F0009C5BFC070A57FC07020000000100000048
:1058000000000000000000005856FC0710000000D7
:105810000100000002000000000000000E57FC071D
:1058200002000000010000000B000B00A85BFC0759
:105830000A57FC0702000000010000000000000001
:10584000000000006856FC07100000000102000084
:1058500001000000000000000C57FC0702000000DF
:105860000900020002000000000000000E57FC07C3
:1058700002000000010000000C000C00E45BFC07CB
:105880000A57FC07020000000100000000000000B1
:10589000000000007856FC071000000041000000E6
:1058A00014000000000000000C57FC07020000007C
:1058B0000900020002000000000000000E57FC0773
:1058C00002000000010000000C000C00B45BFC07AB
:1058D0000A57FC0702000000010000000000000061
:1058E000000000008856FC071000000009020200BA
:1058F00032000000000000000C57FC07020000000E
:105900000900020002000000000000000E57FC0722
:1059100002000000010000000A000A00F45BFC071E
:105920000857FC07100000000100000010001000E4
:105930009856FC070A57FC0702000000010000000F
:105940000000000000000000A856FC071000000046
:105950000800020001800000000000000E57FC0754
:10596000020000000100000008000800CC5BFC07FA
:105970000A57FC07020000000100000000000000C0
:1059800000000000B856FC0710000000088000006E
:1059900001000000000000000E57FC07020000009C
:1059A0000100000011001100745BFC070857FC07A0
:1059B000100000000100000010001000C856FC0795
:1059C0000A57FC0702000000010000000000000070
:1059D00000000000D856FC07100000000102000083
:1059E00002000000000000000C57FC07020000004D
:1059F0000900020002000000000000000E57FC0732
:105A0000020000000100000010001000885BFC078D
:105A10000A57FC070200000001000000000000001F
:105A200000000000E856FC07100000000100000024
:105A300002000000000000000E57FC0702000000FA
:105A40000100000007000700C45BFC070A57FC07C1
:105A50000200000001000000000000000000000043
:105A6000F856FC0710000000410000000200000092
:105A7000000000000C57FC070200000009000200B3
:105A800002000000000000000E57FC0702000000AA
:105A90000100000012001200605BFC0701001D0104
:105AA000DD3CFC07060006081545FC070900020D51
:105AB0007343FC0700000508C143FC070000000019
:105AC000000000001D3CFC07AD4FFC07513CFC07EB
:105AD000933CFC07BF3DFC07EF40FC07EF3DFC0794
:105AE000913EFC07033EFC07D73FFC07374BFC0702
:105AF000750BF10700000000B3B5F10700000000CE
:105B00003B3FF107000000004538F10700000000AE
:105B10005791F107000000001584F1070000000014
:105B20005764F007000000007985F00700000000CE
:105B3000C397F00700000000B97AF10700000000E9
:105B4000A145F007000000000101000A04280A0432
:105B50000203AA0055032A00A001FFFF2C01000048
:105B600052656164206D652028696E6469636174A3
:105B7000652900005772697465206D6520286E6F75
:105B8000207273702900000052656164206D6520E9
:105B9000286E6F7469667929000000004144432033
:105BA00056616C75652031004144432056616C7527
:105BB00065203200496E64696361746561626C6579
:105BC0000000000052656164206D650057726974C1
:105BD00065206D65000000004C45442053746174DD
:105BE00065000000427574746F6E205374617465B3
:105BF000000000004C6F6E672056616C75650000F8
:105C0000436F6E74726F6C20506F696E7400000089
:105C10001001FC071001FC0700040000C850FC073D
:105C2000445CFC07485CFC0748060000C850FC07C1
:105C30000448FD070448FD0794050000C850FC0710
:045C4000800C0000D4
:0400000507FC0511DE
:00000001FF
