:0200000407FCF7
:10000000C049FC07C101FC07C901FC07E101FC076D
:1000100000000000000000000000000000000000E0
:10002000000000000000000000000000F901FC07D3
:100030000000000000000000FB01FC07FD01FC07C0
:10004000A51CFC07DF1CFC07A526F007E918FC0728
:100050005F18FC07FF01FC07B515FC07FF01FC0753
:10006000FF01FC07FF01FC074313FC074713FC07D4
:100070004B13FC074F13FC075313FC07FF01FC074E
:100080008D13FC07FF01FC07FF01FC07FF01FC07C4
:10009000FF01FC07FF01FC07FF01FC07FF01FC0754
:0800A000000000008E070E00B5
:0200000407FCF7
:100110000448854603F0F8FC00480047B90AFC078C
:10012000C046C046C049FC0710B520480189C9082F
:10013000C9000181008A1E4CC00715D0608A800763
:10014000800F012810D91B481949428820310A81A3
:1001500082888A80C2880A80618AFF228132008870
:100160009143C001014361821349062008800F209A
:1001700000F00EF8012000F00BF8002000F008F865
:1001800060890421884360810020208062B610BD10
:10019000002809DBC106C90E012088400749086014
:1001A000BFF34F8FBFF36F8F704700000003005005
:1001B00000000050A000FC070034005080E100E087
:1001C0000F4880470F48004704207146084203D07B
:1001D000EFF309800C490847EFF308800A49084704
:1001E00004207146084203D0EFF30980074908470D
:1001F000EFF3088005490847FEE7FEE7FEE7FEE764
:100200002901FC071101FC07A902FC071102FC07E8
:1002100010B5044620484089C00508D51B2000F0D1
:1002200080FF1D48603001880122114301800522B2
:1002300012071088518A0007800FFF2381339943EA
:10024000C001014351821549206808606068486018
:10025000A0688860E068C8602069086160694861DA
:10026000A0698861E069C8610C620D48836A4B62CD
:10027000C36A8B62036BCB62C36B0B63436B4B63D1
:10028000806B8863074908200880908AC00601D5E2
:1002900000BE10BDFEE70000200000500090FC07EB
:1002A00000ED00E00033005070B5052504462D0731
:1002B000288A04210843288228894021084328816C
:1002C00024480126066024490820088023484089E4
:1002D000C00507D51B2000F024FF204860300188AE
:1002E000314301802888698A0007800FFF2281320C
:1002F0009143C0010143698219492068086160681F
:100300004861A0688861E068C86120690862606926
:100310004862A0698862E069C8620C631148826A19
:100320004A63C26A8A63026BCA63C26B0C4940317A
:100330000A60426B4A60806B8860A88AC00608D554
:1003400000BE688A012180088000C90308436882D2
:1003500070BDFEE780E200E0003300502000005056
:100360004090FC0700ED00E0704770B50D4600249A
:1003700042F7C5FA2855641CE4B2202CF8D30020BB
:1003800070BD10B55EF7A6FE10BD10B55EF7ABFEF2
:1003900010BD7047704770470649884200D000BEC4
:1003A00005210907488A012280088000D2031043F2
:1003B00048827047111111112B480178002902D091
:1003C0008021417070472949002008702849C87071
:1003D000704725490A78002A03D000280CD0022053
:1003E0000BE0002801D0022000E001201F49087026
:1003F0001F490120C8707047012080304870704745
:10040000002805D0012804D0022804D10120E0E70B
:10041000D2E70020FBE77047144900200978002943
:1004200004D0012903D0022900D102207047012005
:1004300070470D48C07870470020EFF3108101220B
:1004400082F31088052212071289120605D4094882
:10045000028901231A4302811846002900D0012194
:1004600081F3108870470000C08BFC07B4BAFC070A
:1004700054BAFC070033005010B5FE4CA178002997
:1004800021D0FD49002803D008884007FCD402E0B1
:100490000888400717D4CA88888811040A180020E1
:1004A000A070F64800235043800B401C4008E061D8
:1004B0001F204006492162F7D3FFE162A062642158
:1004C0004843000CA06110BDEB4948800888032216
:1004D000104308800888042210430880E549012061
:1004E0008870704770B5052000070189302291435C
:1004F0000181018980221143018101890822114370
:100500000181DF490A88520852000A804389182273
:1005100093434381048940231C430481048A0425B6
:10052000AC430482848AA407FCD5D24DAA246C6112
:10053000CD8801240F263602B5430B263602AD19AD
:10054000CD80CD882543CD804489944308344481AF
:100550004A88520852004A8001899943018101204A
:1005600080070168821591430160C64801683F22F7
:100570005202914342148918016001680203114339
:10058000016070BD10B5BB490122D203C969904218
:1005900005D303F0CBFA8905800A084310BD484310
:1005A000800A10BDEEE710B5B24989694843B649E3
:1005B000401849005EF726FD10BDF4E770B500F065
:1005C00056FD0446FFF7F9FFAA4D288120463C302E
:1005D000FFF7F3FFAD49001D88602A891018C01D80
:1005E000AB4A48601278022A01D111304860FFF707
:1005F000D9FFA849401880B25CF790FF70BDF0B5F4
:10060000A54985B00120C863C86B0028FCD1012032
:100610008007C069974C2169884201D2002121617D
:100620001922411AD20191422AD320619B480188A4
:100630000391418802918788C688994903C900902F
:100640000191684600F095FF00F0BDFF05460120CE
:1006500020567F280CD0281A40B2002801DA4042E8
:1006600040B2082805DBE068401CE06001F0EDFFC7
:1006700065708A48029941808780C680039901800D
:1006800005B0F0BD0020704710B586490020086015
:10069000FFF794FF01208007016B490049080163BF
:1006A00010BD08B57349888075498A885208520080
:1006B0008A80002200920099491C00911429FADBDB
:1006C000052109074B899B089B005B1C4B814B89CB
:1006D0005B06FCD54880E120C0000092521C0092CD
:1006E0008242FBDB488980088000488148890006F7
:1006F000FCD508BDF8B56C48C821018000214180B7
:100700006A480824448000F023FD694DA9886846A2
:1007100001800088C046C04668460088042398438C
:100720003ED00020A8806248203001880F2292022B
:1007300011430180524E2036718A21437182504903
:1007400060310A880625AA430A800588CA01154334
:100750000580758A95437582B28A0E25AA43921D3B
:10076000B282474A5589534FED050D881DD5BD43CB
:100770005701ED190D800D880F022D052D0DED1976
:100780000D8005882543058005889D4305800D88DB
:100790006D086D000D8001884025A943018020E08F
:1007A000288A400840002882BDE7BD4303277F0216
:1007B000ED190D800D880F273F033D430D800588FF
:1007C000A543058005889D430580B58A03277F02E0
:1007D000BD43B5820D8801273D430D8051894907EE
:1007E000FCD50188032529430180718A6025A9432E
:1007F000203171828188A9432031818001201D4EE2
:10080000052530702D07E88AC02188438030E882B2
:10081000108A000A00021082108B1C2188430830C5
:10082000108325480380A8880121C9028843A88035
:1008300048012249086001F032F9022001F0F7F87E
:100840001F4F3869C0B2AA2873D0012029880C2212
:1008500091438000014329800648203000F030FC9D
:1008600000F0AAFA00F000FC002864D000F0FCFBC5
:1008700028E00000C88BFC07001600501111010091
:10088000200000500002004020A107003043FC0778
:10089000B4BAFC07E2040000C0000040001500509C
:1008A000F83DFC07A8B9FC070031005000330050A8
:1008B00000030050000F00000002005080E200E042
:1008C000C07FF807FFF7EDFE7F207070B86A1E4901
:1008D000086001F014F900F041F802F051FD012028
:1008E00042F713F8FFF7FEFD1848006841F7B2FC25
:1008F00017490020C870087101208007016882151F
:100900001143016001F040F91E20FFF7DDFD0120D9
:10091000FFF7B2FDFFF750FD02F0AFF902F070FDF6
:10092000FFF7B2FE0B49C82008800B484480F8BD91
:10093000FFE703208AE73869C0B2AA2801D06E20F9
:1009400096E7802094E700003043FC074CB9FC0791
:1009500054BAFC07003100500033005070B53548E0
:10096000334D006834492C6892B0884205D0052286
:100970005202324932485EF7BFFB324E32493046AE
:100980005EF7D3FB0721314809025EF7CEFB2C60EE
:1009900003F09EF82F492E4808602F480024048059
:1009A00030222E492E485EF7A7FB29490822886885
:1009B000C9681191109010A92A485EF79DFB24493F
:1009C0004022103168465EF797FB40226946264870
:1009D0005EF792FB2548274904702548086027499F
:1009E0002548086027492648086027490A200870DA
:1009F00026482749047032200870264905200860DF
:100A0000254A012111602549086025490620086012
:100A1000244907200860244908200860FF20234952
:100A200007300860224908602248066012B070BD95
:100A30005CBAFC079CB8FC076587341200B0FC0761
:100A40005C8EFC0700A0FC07AC14000000B9FC079A
:100A5000003EFC0760BAFC07F88BFC077CFCF10742
:100A600000BAFC07DAB9FC07B0BCFC07FDB9FC070B
:100A7000603FF20750B9FC07903BFC0754B9FC07F4
:100A80000C3DFC0758B9FC07B0B9FC07B1B9FC072D
:100A9000D9B9FC075CB9FC0760B9FC0764B9FC076D
:100AA00068B9FC076CB9FC0770B9FC0748B9FC07CA
:100AB00044B9FC074CB9FC0708B500F0C4F8FFF7CF
:100AC00019FE052424070825C826A74F0DE001209C
:100AD000FFF7D2FC00200090042168464DF72EF865
:100AE000002817D0FFF78BFD14E02089000611D5F0
:100AF00001208007006B00040CD49C480078C007DC
:100B000008D15CF77AFC0020FFF7B6FC9848007823
:100B10000428DCD072B601F075F9042806D002284A
:100B20000BD0032809D0012817D017E0914800788E
:100B3000012801D0032000E0022000F04EF8A08A36
:100B4000C00601D58C48058030BFA08AC00601D5FB
:100B50008948458000F005F800E030BF62B63E806D
:100B6000C3E710B5FFF758FC844902280CD10520D3
:100B70000007408AC005820F814802800A894280AE
:100B80008A8882800A88C28048896021C00500283E
:100B90000ADB7A4860300088C00705D0774A2032E7
:100BA000508A884320305082764882888A43203297
:100BB00082807548C078002807D074480068018991
:100BC0008AB2416803205BF779FD02F0D9FB7048D7
:100BD000016904229143016110BD38B569460524BD
:100BE00008702407218A054604221143218200F05F
:100BF00063F8624841896022C905002905DB5F4B23
:100C00002033598A9143403159825E498B889343FE
:100C100040338B80022D01D0032D13D181884908E8
:100C200049008180002000900099491C00911429FE
:100C3000FADB618989088900491C6181618949065B
:100C4000FCD5608038BDF0B55248534905230127D3
:100C5000524A884201D31C4604E0904201D33C46EC
:100C600000E000244E4D4F4E4748AD194E4E847063
:100C7000AD190126B6034560B54201D8142500E040
:100C800000252540494C45708C4213D2484B2546DF
:100C9000EB18944205D38B4201D211230AE03B4664
:100CA00008E0934201D2142304E08B4201D21023C6
:100CB00000E000230370F0BDF8B5022801D003283E
:100CC00048D1334A136904210B4313612D4A203A5A
:100CD00093895B085B009381052410222A4E240728
:100CE00002287578608A36D010436082608A084393
:100CF00060827068C01C870800F0D1FE608A1021F5
:100D0000084360822B487F1E0762EFF310800121A9
:100D100081F310882188802291432180002800D00F
:100D2000012080F3108815484089C0050AD500F0DD
:100D3000A4FE0B2000F0F5F9104860300188012274
:100D40001143018003205BF7DFFC002806D001205F
:100D5000F0702583F8BD90436082F3E70020F070C7
:100D600030780540F5E700000031005054BAFC0728
:100D7000008DFC07B4BAFC0700330050200000507F
:100D8000A000FC0720030050FC8BFC0758B9FC07AF
:100D900000ED00E0C08BFC070070FC070040FC0782
:100DA0001001FC071C420000000004F8C049FC07C9
:100DB0000C0400000000F407F0B5B54C89B0002029
:100DC000207660760390B3480169B348814202D02F
:100DD000C01709B0F0BDAF4F0425403FE819016DC1
:100DE0000191090F092910D0012201989207904220
:100DF0007AD3AA4A904277D8A9490835884274D153
:100E0000E819C16CA7484180A6E0019A0199120433
:100E1000C9B2160E112935D007DC0B005EF7C0F9F8
:100E2000087474747474740D1F7412390B005EF7B7
:100E3000B7F9063A4B5D6B60656B207EB200C1006E
:100E40009348403808189349143169185EF754F9EB
:100E5000207E8019C0B22076042854D854E0607EE9
:100E6000B200C1008A48403808188A49103014314D
:100E700069185EF741F9607E8019C0B260760C286F
:100E800041D841E0416D89B20291406D000C0146AC
:100E90000490029800F0EEF8A0800499029800F007
:100EA000F1F8E08030E0416D89B20491406D000CB2
:100EB00001460290049800F0DDF820810299049820
:100EC00000F0E0F860811FE0039805A98000401859
:100ED0007049B200143169185EF70EF90398801951
:100EE000039002280FD80FE02BE010E0406D6082E5
:100EF0000AE0416D66484038016405E0406D000439
:100F0000000CA08200D100BEB00045194AE064493F
:100F10002639884203D1E819C06CE0821CE06049A0
:100F2000091F884204D1E819C06C5E49888013E02B
:100F30005B49083988420FD1E819C06C5949C8800B
:100F40000AE007292ED008292CD00A292AD0062900
:100F500028D0401C07D000BE4E48103029185248F7
:100F6000814200D23AE70598A0810698050C86B226
:100F70002946304600F07EF8E0812946304600F0F0
:100F800081F82082207EC10700D000BE4008207674
:100F9000607EC10700D000BE40086076A18A0029AB
:100FA00002D004E02D1DD7E77D21C900A1820428CD
:100FB00000D000BE00200CE7F8B5354C0025403CC1
:100FC000334F24E0EE00A059384988421AD1301935
:100FD00000904068800A400414D001F04DFA0928BE
:100FE00010D90098032240681202014609041040FB
:100FF000890E0843A159086000982D494068C00136
:10100000C00D02E030194068A15908606D1C387E9F
:10101000A842D7DCF8BDF8B51D4C0025403C27465A
:10102000403717E0E80006192248316981420DD1A6
:1010300001F022FA092809D91F49706908401C49A2
:101040000988490408433169086002E03069716920
:1010500001606D1C787EA842E4DCF8BD0C488089F4
:1010600070470B48408A70470948C08A7047084853
:10107000808A7047081A0104890C40180F494018EB
:1010800000B27047C2008018401A0004C0147047B4
:10109000448CFC07C07EF807A5A5A5A54C420050CE
:1010A00028000050A000FC07C07FF8074C1000404B
:1010B0003C43FC0738300040FFFF01FC0100FFFF0C
:1010C00010B5062201495EF717F810BDD47FF80766
:1010D0000520000701883022114301800188032286
:1010E0001143018070470520000701883022914399
:1010F00001800188890889000180704712490A8BA4
:1011000003231B029A43000202430A8370470F48DD
:10111000818A808A4905890F8004400FC900081818
:1011200070470A498A8A03235B029A43C3085B0219
:101130001A438A828A8A0723DB0240079A43800C7B
:1011400002438A8270470000203000504000005067
:10115000F0B585B00026884C0296029830214843AD
:10116000009600190099890046500099491C009189
:101170000C29F7DB0298401C02900128EDDB02F0FD
:10118000ABF87D4D0021083D29606960012702967A
:1011900000200090029979484900465A0099384643
:1011A000884080B206421DD0029830214843009901
:1011B000001989004058411C1BD000280DD0C117D0
:1011C000009A5DF7DDFF029A12015DF7D9FF2A68E8
:1011D0006B6810431943286069600098401C0090B8
:1011E0000C28DBDB0298401C02900128D0DB05B004
:1011F000F0BD00BEE3E7F8B5164605460C460A46C4
:101200001F46012000215DF7BBFF2A015DF7B8FFF3
:10121000594B083B1A685B6810401940084300D1DD
:1012200000BE680156494018610008183E43C68058
:10123000F8BD70B505460C460A46012000215DF751
:101240009FFF2A015DF79CFF4B4A083A13685268DA
:1012500018401140084300D100BE680148494018B9
:101260000121A140818070BD70B505460C460A463B
:10127000012000215DF784FF2A015DF781FF3E4ACE
:10128000083A1368526818401140084300D100BE64
:1012900068013B4940180121A140418070BDFFB564
:1012A00081B00C4605460A461F46012000210A9ED1
:1012B0005DF766FF2A015DF763FF2F4B083B1A6855
:1012C0005B6810401940084300D100BE002E214643
:1012D000284602D0FFF7C8FF01E0FFF7AAFF3B4610
:1012E00021462846039AFFF786FF80E770B5012460
:1012F00021460A3881400D4688B200F02CF884401F
:101300002048C189A9430C43C48170BD10B504466F
:101310000A3804280BD82046FFF7E8FF1649A0003A
:10132000303140188038806D002801D0804710BDD2
:10133000002CFCDBE106C90E012088401249086040
:1013400010BD0A20E2E70B20E0E70C20DEE70D20CD
:10135000DCE70E20DAE700280BD0411E4840C0032E
:10136000010C002002E04908401C80B20029FAD19B
:101370007047102070470000688CFC07503EFC0747
:10138000003000500014005080E200E010B5FFF77C
:10139000AAFE0522120790882049000504D5204B9B
:1013A0001C880520A04311D09088C3061D481FD576
:1013B0008388DB071CD003881B0619D50122828095
:1013C000028880239A430280486822E01888042219
:1013D0001043188018884008400018800C68002CC2
:1013E00005D00220185E995E0A229A5EA04710BDC1
:1013F0009288D206FBD582889207F8D50288D2055A
:10140000F5D5022282800288FF2301339A430280AD
:1014100088680028EBD0804710BD0000AC8CFC072A
:1014200000020050000100507D4801880122120393
:101430009143018070477A480188012212031143C9
:101440000180642000BF401EFCD170477449CA88E7
:10145000D208D2000243CA8070477149CA887023FB
:101460009A4300010243CA807047F8B5050049D08D
:101470006B4C2978208840229043890108432080C2
:101480006878FFF7EAFF2878002803D16878000918
:10149000FFF7DCFFE87804260128208833D0B0432A
:1014A00020802879A1880002C9B20143A180E08888
:1014B00001274006400F7F02042826D0FFF7B4FF23
:1014C000A8780F2800D900BE61880F2252029143EC
:1014D000400201436180687961888908890001437D
:1014E0006180A879012820883BD0B8432080E87922
:1014F000072800D900BE6188FF22C13291438001D4
:1015000001436180F8BD3043CAE7FFF7AAFD4549B2
:101510000028088001D144480880FFF78CFF20880C
:101520003843208021884020814301432180608806
:10153000304360806088C004C00C608060880F21E8
:1015400049028843084360806088FF21C131884395
:10155000FF218131084360806088800880006080BE
:10156000F8BD3843C2E72E480188012211430180AB
:10157000704770B505462A4C0020208021200001CC
:1015800060804020A080FFF769FDA081A1897020C4
:1015900081434031A181062000F035F82846FFF74D
:1015A00064FFFFF7E0FF70BD1D4801880222114370
:1015B000018070471A490120C8811C480068002832
:1015C00000D00047704710B5FFF7EEFF14480188C0
:1015D0008907C90FFBD10121C181008A114A144931
:1015E0001288801A7D22D2005043002801DD4A1063
:1015F00002E0002801DA0F4A80185DF719FD80111A
:10160000193040B210BD002809DBC106C90E012007
:10161000884009490860BFF34F8FBFF36F8F704751
:10162000001500504243FC0740760000B88CFC07D0
:10163000AA0500002BFDFFFF80E100E010B5934AF2
:1016400013885B085B00138013884024A343138036
:1016500013880824A343C000034313801089800A21
:1016600080020843108110BD30B5884B1C880125CD
:10167000640864002C431C801C884025AC432C4328
:101680001C80012900D101201C882025AC43400189
:1016900004431C8018881024A043090108431880C3
:1016A0009888800A80021043988030BD30B5EFF3EF
:1016B0001081012282F3108805231B079A882024B9
:1016C000A24322439A80002900D0012181F310888F
:1016D0006E4C6034A18949084900A181A189C907DC
:1016E000C90FFBD16949002220310A82674A038869
:1016F00093824388138383889383C3880B801388E2
:101700000625AB43457A6D002B431380827B002A6C
:1017100000D100BEC37B002B00D100BE8B8B5B09C8
:101720005B01521E13438B830A8B5309C27B5B01FF
:10173000521E13430B83817A012917D08189C07A05
:10174000FFF77CFFA189012081430143A181A0898A
:10175000C007C00FFBD04E4801688022090A090269
:10176000114301604B491020086030BD8289C17A65
:10177000007AFFF779FFE5E7F0B5002584462846B3
:10178000DC0701D002242343404C404F60340E4616
:10179000491E89B2002E1AD0268AB607F60FFBD052
:1017A000002904D19D0702D50126760200E000261B
:1017B00065462D5C2E433E82344D401C80352D887D
:1017C00080B2002DE3D031494031898A09E0D90740
:1017D00007D0218A4907C90FFBD0218A8906C90F82
:1017E000FBD1002A00D01580F0BDF0B50027274DB1
:1017F00084469E4638463C46244E603529E0641CAB
:10180000A4B28C4205D173469F0702D501277F02FF
:1018100000E00027FF2301331F4337828C4209D2A7
:101820002F8ABF07FF0FEAD104E0378A63461F54AF
:10183000401C80B2884203D22F8BBF06BF0EF4D16A
:10184000124F80373F88002F03D010494031898ADA
:1018500001E08842E2D3002A00D01780F0BD0B4897
:1018600010B5203080890C49C96A002901D0884709
:1018700010BD042000F001F810BD002805DBC106F2
:10188000C90E0120884005490860704700130050C8
:1018900004E400E000E100E04443FC0780E200E0F3
:1018A000544930B4884201D0012100E00021524A5D
:1018B0004901891808E0838ADB07DB0F12D003880F
:1018C000541C8D68CC81AB54CA898B899A42F2D35F
:1018D00082885208520082808A69002A02D0C88910
:1018E00030BC104730BC704710B5444800F001F8D8
:1018F00010BDF8B53F4D404E044620890007000F4B
:10190000062826D009DC012840D002281DD0042852
:10191000F3D12046FFF7C4FFEFE7072828D00C28B3
:10192000EBD1AC4201D0012000E00020400187193A
:101930002046FFF7B5FFA18849084900A180B96991
:101940000029DAD0F8898847D7E7204600F01FF849
:10195000D3E72046AC4201D0012100E0002149013B
:1019600089190A69002AC8D0818A9E2319400BE090
:101970002046AC4201D0012100E000214901891933
:101980000A69002AB9D001219047B6E7F8BD194984
:1019900030B4884201D0012100E00021164A4901FB
:1019A00089180EE003891B069B0F032B1BD0838A2B
:1019B0009B06DB0F002B95D0531C0C68CB80A25CE0
:1019C0000280CA888B889A42ECD3828802239A4389
:1019D0008280828880239A4382804A69002A81D04B
:1019E000888830BC10477C231B5A9B07DB0FE1E73C
:1019F00078E7000000100050BC8CFC07001100507C
:101A000010B50446FFF783FBA04202D22046FFF741
:101A100088FB56480188C90708D101880122114373
:101A200001805248603841894907FCD510BD38B55E
:101A30004F4C054620684107490F68460170007801
:101A4000854219D0494860384089C0050CD5A81E88
:101A500003005DF7A5FB05040604040409000B2040
:101A600000E01320FFF7CCFF2068C008C000284327
:101A7000206060684007FCD538BD3E4900200870F2
:101A80007047052109070988090600D400BE8000B7
:101A9000394909583648016138494161704710B5E4
:101AA000EFF31084012080F31088304860384089BB
:101AB000C0050BD52F4901200870FFF728FB3049DE
:101AC00008702A480088C007C00F4870052000072A
:101AD000018880221143018025480168C908C90096
:101AE000016041684907FCD50320FFF7CAFF002CBD
:101AF00003D0012080F3108810BD0020FAE770B5F4
:101B0000EFF31084012080F310880521090708886D
:101B100080221043088016480368DB08DB0003605E
:101B200043685B07FCD5174B0361144B436108887E
:101B3000904308800D4860384089C0050ED50D4996
:101B400000200F4D08702878FFF7EBFA687800281E
:101B500004D106480188490849000180002C03D0BF
:101B6000012080F3108870BD0020FAE7800000504B
:101B70000000F407FC8CFC07543EFC07090404A495
:101B80004043FC070F009909F8B51D481B4D00683C
:101B9000A84231D0FF26C136012130465AF71CFE3B
:101BA00004461848016818480A0A017042700A0C75
:101BB0008270090EC1700022A35CFF21C0319F0713
:101BC000891ABF0F615CC75D79405940A154521C0E
:101BD000B242F1D30C481C222146001D5FF720FAC7
:101BE000002800D000BE20465AF771FE0648406823
:101BF00040F78BFE02480560F8BD0000658734128F
:101C00009CB8FC073043FC077443FC07F8B501257A
:101C1000AD07AC6B2046FEF7C5FC6849684F4A68C3
:101C2000861800204860394630465DF7EBF9654973
:101C300048603A465043301A00D0381A80B20860E3
:101C4000286B08218843084328635F4804605F4885
:101C50000068002802D0A04200D200BEF8BD10B536
:101C6000FFF741FA052000074189890703D0418920
:101C70008908890041810189802211430181018AFB
:101C8000042291430182818A8907FCD500F0B2F8D1
:101C9000012080070169490700D500BE0169490795
:101CA000FCD510BD10B5FFF713FA49480189490763
:101CB000FCD4FFF718FA4748052100880907488037
:101CC0004548464C0088801E608007202080FFF732
:101CD000FFF920884007FCD4FFF7C1FF10BDF8B51D
:101CE0003F480168C90703D001680222114301601F
:101CF0000168490204D5016801229205114301607F
:101D000001272E4EBD072C69002C55D0200606D584
:101D10008020A8614BF7BBFD1E20FEF7D5FBA00776
:101D200003D50220A86147F7B0FC200708D508209A
:101D3000A861002047F762FC0420307000F093FB9C
:101D4000E00505D5FF200130A861012047F756FCCA
:101D5000A00504D501204002A8614BF701FE6006F2
:101D600003D54020A86147F744FCE00603D51020C6
:101D7000A86146F701F860070FD50420A861144850
:101D800001894908490001815BF79EFB40F758FC37
:101D90001E20FEF799FB00203070E00706D00120DE
:101DA000A8615BF7ADFB4BF772FD3770A006AAD5B3
:101DB0002020A86100BEA6E7F8BD0000008DFC074A
:101DC0007102000040000040108DFC07088DFC07E8
:101DD00000330050CC8BFC07D08BFC070016005062
:101DE0000002004010B540F770FA67488068674904
:101DF000486010BD10B540F794FA644862494068E5
:101E0000886010BDF8B5002500F0B9F800270090F3
:101E1000FEF70FFB01465E4E0020002902D131790A
:101E2000022900D100905B490989C9070DD15AF7F1
:101E3000B0FB002809D0F0780125002805D0052046
:101E40000007808AC00701D0042596E0308800286A
:101E50007DD1FEF7EEFA002806D14F48806A0028AF
:101E600002D000F08CF80090FEF7A8FBB17868462D
:101E70005BF787F900286AD00124A407206940068F
:101E80007BD44348817868464BF758FE002874D0CD
:101E90000120FFF733F90099002906D0206AFF38A6
:101EA0003938DA2801D8491E00913C4802883C485C
:101EB000016850183B4A1060E26B920A92020A4392
:101EC000E263E16B384A1140384A1668B2021143A6
:101ED000E163E16BC902C90A40050143E163344A89
:101EE000009804250021904200D300BE314B0CCB5A
:101EF0005DF7B2F80903000D0843244A401E711C27
:101F00001060884200D1166021480079002801D075
:101F1000012100E00021106847F726FD2648C06A2D
:101F20008047FEF7AFFB002802D0FFF7D1F801276A
:101F3000154E206B0004C00FFBD03068C005FCD5E7
:101F400030688024A0433060002F03D000E014E00C
:101F5000FFF7C9F80F494889462804D24622174B93
:101F6000101A18604A81FFF73DFF30680006FCD563
:101F7000052000070189A14301812846F8BD1048CA
:101F80000068806A7047000000020040088DFC076E
:101F900054BAFC070033005074BEFC07D08BFC071A
:101FA0003843FC078843FC07FF03E0FF3443FC078A
:101FB00040420F00F08BFC0758BFFC07048DFC0764
:101FC00058B9FC07F0B5FE48406B7F2109028843F1
:101FD0000B2109024018FA494863086AF94980B29E
:101FE0004018F7490862886BF749012208405203FC
:101FF000F34980188863F2484030016903231B02CB
:1020000019430161818B102421438183EC482030E6
:102010008188012421438180ED49EC480860ED4C22
:1020200020883F21090188432F2109014018208081
:10203000E84820388169E84D490D49054919816111
:10204000C169E64D294009256D024919C161416800
:10205000E34D2940E34D491941608168E24D294033
:10206000E24D49198160C168E14D2940E14D4919AE
:10207000C1600169E04D2940E04D49190161E04925
:10208000C514097809064919C1256D012943DD4D9B
:1020900029600525DC49AD020D816D1D8D81DA4970
:1020A00020310D892D0A2D0255350D818D25AD006C
:1020B0000D82D64D8D82D64D0D83D44D0E3D8D8330
:1020C000D349D14DC91D40352980D249A181C16B69
:1020D000D14C2140D14C0919C163FF20D04C6C3048
:1020E0002080CF482030068B1F2149010B258E43CD
:1020F000AD0176190683CA484030868809278E4389
:10210000BF01F6198680068915278E437F01F619CF
:10211000068186898E4371198181FF208D30A080D0
:10212000BF4880300189E024A14319430181818B9C
:102130004909490119318183B2482030818B5B0103
:10214000994389188183AF4880300168C908C90064
:10215000C91C0160AB49B34840314862F0BDA94990
:1021600008B500208031C8620090401C0090FF2814
:10217000FBDDAD480078AA49C006820D4031C86831
:102180001F235B0198431043C86008BDA7488C49D2
:102190000068403108608A488169890989011C31D9
:1021A00081618169C21391438161016B3F221206F3
:1021B00091430722920689180163016B3F22920125
:1021C00091430F22D20189180163016B89098901AA
:1021D0001E31016370477A48C16949084900C161ED
:1021E00070478F4808B54030C1688F4A8905C90ECD
:1021F0001170C1681F2252019143C16081490120C1
:10220000887180488030C16A03221143C162002076
:102210000090401C0090FF28FBDD08BD08B57949FF
:102220000220887100200090401C00900B28FBDBEE
:1022300008BD634841210177C169032252029143DD
:1022400002158918C16170475D4840300168774ABE
:1022500011600021C94301605948816989098901D8
:1022600081618169C21391438161C1690322520274
:1022700091430315C918C161C16970239943403165
:10228000C161016B3F231B0699430B235B06C918F1
:102290000163016B3F239B01994389180163016B23
:1022A00089098901183101637047F8B5554803273A
:1022B0004771434C6068C009C00114306060FFF78B
:1022C000C3FF43202077FFF7A9FFFFF78AFF002510
:1022D000261500950098401C0090B042FADB494951
:1022E00003204871364880308068C705FF0DFFF72E
:1022F00036FF00950098401C00901028FADBA0697A
:102300004002400AF9050843A061A0694849084015
:10231000B9010843A061FFF78CFFFFF77FFFFFF7CC
:1023200060FF00950098401C0090B042FADB3549F0
:1023300003204871224880308068C705FF0DFFF7F1
:102340000EFF00950098401C00901028FADBA06951
:102350004002400AF9050843A061A06934490840D9
:10236000B9010843A061FFF764FFFFF757FFFFF7CC
:1023700038FF00950098401C0090B042FADB2149DC
:10238000032048710E4880308068C605A069F60DAC
:102390004002400AF1050843A061A06924490840B1
:1023A000B1010843A061FFF716FFFFF7EFFEFFF74B
:1023B000D6FE00950098401C00901028FADB39E00A
:1023C0000030004000008888FF00FEFF59055C07D0
:1023D000800000402020004009581A00FEE1FFFF65
:1023E000E0E000000809294900000303696A686CFD
:1023F000031FFFFF70600000E0E0E0E00B0A0A0846
:10240000148DFC070010004020130040340A000027
:1024100051080000070F00002F64E0FE101A0601AB
:1024200000120040500150012843FC078C43FC0778
:102430003F80FFFF134846810120F8BD35E7704714
:1024400008B511480821017100210091009A521C21
:102450000092102AFADB0091491C00911029FBDB45
:102460000321417108BD084802218171002181804A
:102470007047064908707047044800787047034861
:10248000407870479043FC0700100040148DFC0713
:10249000002070477047704710B5282801D22820C7
:1024A00002E0E62800D9E620FF21F33148437D21F0
:1024B000C9005CF7A7FD8130C0B210BD70477047FE
:1024C00010B5022902D0012900D000BE002802D098
:1024D000FF2802D000BE022902D0FFF7CDFF10BDB9
:1024E0000C2010BD01218907086B072210430863E7
:1024F0008C480168021391430160704710B50220B7
:10250000FEF7FCFD8748016802039143016086489D
:1025100000214163416B1F22120491434213891829
:10252000416301060868F0229043E030086010BD66
:1025300010B58AB07D4941627D4981627D49416122
:10254000002430210C547C49C1627C4901607C49E3
:1025500001627C4941607C49C161FFF770FF7248AC
:10256000416B1F22120491434213891841636D4845
:102570000168C2129143016068460455641CE4B2CC
:10258000282CFAD3014671482822006840305CF7B5
:10259000B3FD0920FFF76DFFFFF771FF002802D0A0
:1025A0000120FFF766FFFFF74BFFFEF705FDFEF783
:1025B00032FDFFF707FD00F058F8FFF79FFFFFF728
:1025C0003DFF00F083F8FFF74EFF0AB010BD10B5D5
:1025D0005548416B1F2212049143421389184163ED
:1025E00000060168C908C9000160052000070189CB
:1025F000082211430181FFF742FF002802D0012089
:10260000FFF737FFFFF71CFFFEF7D6FCFEF703FDD1
:10261000FFF7D8FC00F029F8FFF770FF00F035F85D
:10262000FFF721FF10BD10B5044670224849494804
:102630005CF762FD47484830011B4648103801836B
:1026400044495C31091B418310BD10B5FFF7F8FE0A
:10265000FEF7E1FCFFF7B6FC00F007F8FFF7EEFE2F
:1026600000F023F8FFF7FFFE10BD2F4B10B54033ED
:102670001868394C0102090EC2B20A3109040A3243
:10268000204011430143196010BD344A118B314879
:10269000103083691B0C1B040B438361518BC2698F
:1026A000120C12040A43C26170472C4A203A118B63
:1026B00028481030C3681B0C1B040B43C360518BAC
:1026C0000269120C12040A430261704710B5FFF749
:1026D000ECFFFFF7DAFF21482038018A1D4810304F
:1026E0008268120C12040A4382601C4A40329188AC
:1026F000036A1B0C1B040B430362D188426A120C51
:1027000012040A43426215494A88836A1B0C1B045F
:10271000134383628988C26A120C12040A43C2629C
:1027200010BD000000020040400000409124FC0762
:102730009524FC07C124FC07E524FC079724FC072B
:10274000BD24FC07BF24FC079924FC074CB9FC07F7
:10275000703EFC0770A0FC0700FF00FF2030004027
:10276000FFB585B00C46FD205EF742FD03900027C3
:102770006846077008986946060A20885FF764FE75
:1027800005466088002800D000BE002D6AD1FD20DB
:1027900000F066FD694609781423594342680B1D11
:1027A000D35C022B21D15158354A098891421CD162
:1027B0000197029720885FF7E2FD002800D100BE54
:1027C00001AB002204A94EF7CFFB049821468005F7
:1027D000C00F5FF7BFFD05062D0E43D16846017897
:1027E000E28830465FF791FF21E000280BD0806936
:1027F0008446002807D06846A2886188A31D007817
:102800006546A847054601970297208801A94EF71B
:1028100026F9002D26D101980089C00B07D16288C6
:10282000A1882088A31D4EF784F9051E1AD13146D0
:1028300003985EF7FBFC0146A088079A801D83B2CF
:1028400010485AF7D7F80746A288A11D801D5CF7EB
:1028500053FC684600787880A088B8803E7038467F
:102860005AF7E3F804230848079A08995AF7C2F878
:102870002188018085705AF7D8F8002009B0F0BD92
:10288000022900000AFD0000160C0000F8B5002522
:10289000244CFF272E46002813D1284610302661ED
:1028A000A082E7826660A660E681A681C0B221466A
:1028B00026605AF79EFA6D1CEDB21834022DECD347
:1028C000F8BDE08A5EF71AFD002802D04168204674
:1028D0008847E7826660A660E681207D5AF7E3FAC2
:1028E0006D1CEDB21834022DEBD3F8BDF1B50D4DD2
:1028F0000D4F00242E46E88AFD2803D1182060439E
:1029000080194760E88A5EF7F9FC002803D08268E6
:10291000284600999047641CE4B21835022CEAD38B
:10292000F8BD00001C8DFC07383FFC0710B500F017
:1029300007FB60F7DDFE0020FDF762FD10BD0C21F6
:10294000314A10B5414389188978FF2902D000F037
:10295000C1F810BD00F073FD10BD10B560F7B0FDFB
:10296000002801D000F06BFD10BD10B500F067FD30
:1029700010BD10B525490A780270401C491C5CF74F
:10298000BBFB10BD2149498C0180704708210180A3
:1029900010214180002181807D21C180704770B568
:1029A0000C4601780025194B002904D0012909D0D3
:1029B0004820207070BD8278011D1A70581C5CF789
:1029C0009BFB01E040885884257070BD0120087091
:1029D000002048808880704770B50446407980099F
:1029E00011D13FF78CFF014620700A0A62700A0C71
:1029F000A270090EE170251D3FF781FF2870000AC3
:102A0000C0210843607170BD648DFC07708DFC07A8
:102A10000021BD4A05E0834201D101207047491CD5
:102A2000C9B20C234B43D35CFF2BF4D10020704779
:102A300070B5B549B54C0E460C36B54D0DE0521883
:102A40005268002A07D0C2B20C235A435118496871
:102A5000401C60702DE0401C607060780C22424386
:102A60008B5CFF2BEBD10AE089194968002903D060
:102A7000FFF7CEFF002809D02078401C2070217875
:102A80000C204143705CFF28EED117E020780C2128
:102A9000414389194968401C20700AE04919C968F6
:102AA000002909D0C1B21C2251434919C968401CF0
:102AB000A0708847002070BD401CA070A0781C2129
:102AC00041436A5CFF2AE9D10020A0706070207049
:102AD000012070BDF8B5054600248B4E0AE0801930
:102AE0008168002904D0641CE4B22846884701E0CC
:102AF000641CE4B220460C214843315CFF29EED12E
:102B0000814E00240C3609E08F19B968002903D0E2
:102B1000FFF77EFF002809D0641CE4B20C2161435A
:102B2000705CFF28F0D10024794E10E0641CB96875
:102B3000E4B228468847F1E780190169002904D0EA
:102B4000641CE4B22846884701E0641CE4B22046D5
:102B50001C214843315CFF29EED1F8BDF8B56B4D1F
:102B6000E868002835D1522304220921694859F721
:102B700041FF0446E8600D2020700026667066481C
:102B8000A080E08007202072A672012060721620CB
:102B9000E072024620460C3060A107465CF7ACFAB2
:102BA000E8682B210E54C07A21462C310F301F28A3
:102BB00006D8E07A0A21C21920465EA30B3006E04F
:102BC0002B20005D5BA3421820460A212B3060F7C2
:102BD000A1FCE868F8BD70B54C4E04468500361D72
:102BE0007059002816D121020E23042254480A31BC
:102BF00059F700FF09210170002C00D000BE705170
:102C000010218180082141800021C1807D22028124
:102C100041818181705970BD70B53C4EB06800280B
:102C200029D13C482C2304220921093859F7E2FE16
:102C3000032101700A21B060417017210184002531
:102C400085760446458010210A305CF76EFA202113
:102C5000E176A583E5833B486584C08FFB21FB2893
:102C600000D908463749E084403137480988814215
:102C700000D808462085B06870BD3EB500252249C1
:102C8000009501950C223431684602955CF734FAC0
:102C90001E480C22183069465CF72EFA1B4C0A229B
:102CA0002434227023A1601C5CF726FA164965843F
:102CB000243104205AF79DF8002104205AF7CBF85C
:102CC0003EBD4BE710B5FFF749FF59F7AEFE0F4980
:102CD0000020C860022104205AF7BDF810BD10B5CD
:102CE0000446FFF778FF59F7A0FE084A0020A1002C
:102CF000121D505010BD10B5FFF78EFF59F795FE0D
:102D000002490020886010BD743FFC074C8DFC0711
:102D1000AC40FC070D0D00004C04000003030A1832
:102D20001107595A08E4862A9E8FE911BC7C984302
:102D30004218000053414E4B45542D424C45000073
:102D40000E0E0000F0BBFC074808000010B510464E
:102D50005AF796F8002802D000BE002010BD0123CB
:102D600004220921724859F745FE0121017059F7E3
:102D70005CFEF2E710B50C780E2C13D008DC012CA9
:102D800012D0032C16D00C2C0CD00D2C08D119E02D
:102D90000F2C07D0112C05D0122C03D0132C01D0EE
:102DA00000F0FDFB002010BD4878002805D1FFF79A
:102DB000A2FFF7E74878002801D000BEF2E7FFF74E
:102DC000CCFDEFE7487800F077FBEBE7F8B51C4661
:102DD00010460E465AF754F8022802D000BE0020D2
:102DE000F8BD240A00D000BE0C20274647435148B6
:102DF0003D18AC70FF2C15D00121E970032104208F
:102E00005AF729F84B483188C153707A28713146F6
:102E1000681D06220A315CF76FF901220021204665
:102E200060F762FB3146204600F01BFBD7E770B528
:102E30000D784C78092D04D0002C00D000BE00F095
:102E4000AEFB002070BD70B51D4610460C465AF70B
:102E500017F82A0A032802D000BE002070BD0C20FB
:102E600042433448FF21101881700021C170204670
:102E700000F026FBF1E7F0B5087800252E4C89B06C
:102E80001F461646002804D0012817D0022827D153
:102E900029E06846FFF76DFD6846037832463946FB
:102EA00020460A3359F7A6FD0446057068460278A5
:102EB000411C6280201D5CF71FF92BE069460D80E4
:102EC0006846FFF75FFD0A2332463946204659F728
:102ED00091FD0121017069460988418059F7A5FDDE
:102EE000002009B0F0BD0A233946204659F782FD7B
:102EF00004466846FFF74AFD0220207068460088B5
:102F0000608068464088A08068468088E080684687
:102F1000C08820812046E1E7FEB51C46089B0D26AF
:102F2000064D6F4668C71346224660F7E1F9FEBDBD
:102F3000020D0000648DFC070B0E0000B43FFC077F
:102F4000704710B50A23042209210B4859F752FD96
:102F500004461B202070142060F79EFB6070142034
:102F600060800420A0800020E080FF217431218156
:102F7000204659F75AFD10BD1B0D0000F8B50E464E
:102F800009781846002425460B005CF709F9090664
:102F900009120915150C180F1B000F241AA512E0B1
:102FA00007241DA50FE008241DA50CE007241FA57C
:102FB00009E00A241FA506E00D2421A503E006244C
:102FC00023A500E000BEA31C0146234859F712FDCB
:102FD0000746307838707C70002C04D02246294691
:102FE000B81C5CF789F8384659F71FFD0020F8BD7A
:102FF000FEB51C46089B0126184D6F4668C7134650
:10300000224660F775F9FEBD53616E6B65742D48FD
:103010006972656D61746800444131343533310043
:10302000123456FFFE9ABCDE0000000001D2008080
:1030300005000100312E302E302E302D4C45000081
:10304000765F362E302E31342E313131340000008F
:10305000FFEEDDCCBBAA0000031400001C40FC07FF
:10306000052000070089000608D501208007006BB5
:10307000000403D403480078C00701D00020704743
:103080000120704754BAFC077047704770B50D4671
:103090000446FFF7E5FF002806D06B482A460421C6
:1030A000201859F7E6FF70BDFDF7C6F966480422FF
:1030B00008231146801E59F79DFC4560047059F79E
:1030C000B4FC70BDF8B5614C069D06190024002EB5
:1030D00026D0012E0CD05F4F5D4B3A46283A022E87
:1030E0000AD05A49C91E41180A2927D30120F8BD20
:1030F00000F080F8287039E00878461E092E0DD8B7
:103100008000001F105898422FD1B0003B58135038
:103110004A6808781146FFF7B9FF26E000BE24E0B0
:103120004A68002A02D04C48824200D300BE087888
:1031300045494018042159F79CFF16E04349891E70
:103140004018C0B2411E0929E8D88600B218803A5A
:10315000D16F002909D0994207D0404B994204D041
:10316000D467F219803AD46788472C700020F8BDE4
:103170000A46010010B5384801D0814200D300BE94
:103180000020344B283B84001C59002C04D0401CE8
:103190000A28F8DB002010BD84001A51401C0406E8
:1031A000240EF7D02046FFF771FF204610BD70B502
:1031B0000446401E09281BD82648A10028380D18AF
:1031C000803DE86F002813D0244EB04210D01E4836
:1031D0000421201859F797FF1B48042208231146A1
:1031E000401EEE6759F706FC047059F71EFC70BDCF
:1031F00000BE70BD10B508780C46411E09291FD8C5
:1032000082001448121F28388258144B9A4205D164
:103210000022890042502830425012E08900405874
:103220000B4988420DD1042208231146064859F75C
:10323000E1FB217801706168416059F7F6FB00E01D
:1032400000BE002010BD000003040000FFFBFFFFD4
:103250008B30FC07D48DFC07FCFF3F008930FC0756
:103260000021154A06E0834203D11C2041438818FF
:103270007047491C1C234B43D35CFF2BF3D1002028
:10328000704710B51823042209210C4859F7B2FBE6
:1032900004461B202070FD2060F7FEF96070FD20C1
:1032A00060800420A0800021E180E1602161A18292
:1032B000204659F7BAFB10BDAC40FC071B0D0000BF
:1032C0003EB51D46069B00240093134601940294CC
:1032D0002A4660F70DF83EBD70B532480022016AFB
:1032E000D243002901D0114600E00121CB170C0E7A
:1032F0001B0223430C0201622B490D684E682C43CC
:1033000033430C604B604369002B01D0144600E04E
:103310000124E317E50E5B012B4344610D68640152
:103320004E682C4333430C604B60436A002B00D142
:1033300001224262D017D30D400218430C6852029A
:103340004B68224318430A60486070BD38B50124B9
:1033500025020A232A46082100200094FDF79FFF3A
:1033600009232A46052100200094FDF798FF00203C
:1033700003220346120209210090FDF790FF38BD99
:1033800010B500F0A1FBFFF7E1FF0848FEF78EF94A
:1033900005200007418A01221143418200F064F9AF
:1033A00010BD0000688CFC07608CFC07B842FC076D
:1033B00010B5A14CE179080602D52046413001E064
:1033C0009D4822304906490E08189B490A221831A7
:1033D0005BF792FE984A637A41321046217A1F3891
:1033E00060F7AAF895490A20FFF7C2FE607010BD89
:1033F00010B5914C2078FFF772FC0020A07010BD32
:1034000070B58D4D00242846AC700921183001702C
:10341000FF214170CD218170AB21C17004714471D5
:10342000162287A10A305BF767FE162028726C729D
:10343000EC702C716C71AC71FFF778FA70BD10B53F
:103440007E490A20FFF794FE7B494870FFF739FC5C
:10345000794901230A22183100F0ADF8FFF732FC58
:1034600010BD70B50C46054609210020FDF7FCFE95
:103470000C207949684340188078FF2815D06E4E9B
:1034800035707078FFF793FE60880838092805D2F8
:10349000A088002802D1E0887D2808D07D206F49CF
:1034A000C000FFF765FEB07001E0FFF7C8FF2146DE
:1034B0002846FFF744FA70BD442800D1BFE77047A3
:1034C00070B509210020FDF7B4FE5B4C0025A07803
:1034D000002802D0FFF76BFEA570E078002802D02C
:1034E000FFF765FEE5702079002802D0FFF75FFE48
:1034F00025716079002802D0FFF759FE6571A07927
:10350000002802D0FFF753FEA571FFF798FF70BDAA
:1035100070B500F0B4F8484D698928460A12103099
:1035200002704170A9890A128270C170E9890A1279
:1035300002714171FD203FF746F901460C23042238
:10354000474859F757FA0446002020700120607060
:10355000022060800620A080024629461031A01D6E
:103560005BF7CAFD204659F760FA3E491420FFF781
:10357000FFFDE87070BD10B52F4C8179E07800290F
:1035800006D000280AD137490A20FFF7F1FD04E0F0
:10359000002803D0FFF70BFE0020E07010BD304A7A
:1035A000D243801806D0032804D10846498803294D
:1035B00000D1E0E77047FEB517460446002B01D066
:1035C0001C2000E01F20E27A2546831A20460C309A
:1035D00001902030184E20350090BB4209DB019845
:1035E00010183A465BF788FDE07AC019E0720A3895
:1035F0000FE0E87A1F22121ABA420CDB009A8018F8
:103600003A465BF779FDE87A8021C019E8720A38FA
:103610000843F07100E000BEE27A074832722230BF
:1036200001995BF769FDEA7A0348727241300099AB
:103630005BF762FDFEBD0000FC8DFC07B133FC07AB
:1036400003030A181107595A08E4862A9E8FE911C4
:10365000BC7C984342180000648DFC07F133FC07E2
:1036600006FD00001135FC071CB519A0006800908C
:10367000002301AA02216846FEF77EF81CBD7FB533
:10368000042168460172002000900346019003AABD
:1036900006216846FEF7A9F8684601240D4D045737
:1036A0002C80032141560C480023018068460521E7
:1036B00041560A4803AA018003216846017201218C
:1036C00002A8FEF759F82C80204604B070BD000017
:1036D00002000000068EFC07088EFC070A8EFC071D
:1036E000F8B5074601200023024600901946032042
:1036F00045F788FE0446022180300170F64DF548FA
:103700002A6843881146FF31F7310B868088488646
:10371000F248066A0123DB069E431E430662FF321F
:103720000020FF32383250829082D0821D200882E1
:10373000EB484884EB48C882EB4808830020488265
:10374000384646F79FF901462868FF30F730C28BAC
:10375000920992010A43C283E448416800208847E5
:10376000002C02D0204645F736FA2046F8BDFFB5BA
:103770008BB0064616980027022821D00D980188A4
:103780001498814278D37188084640383F2802D87F
:10379000159852F733FA0C98361D0088149A801940
:1037A0000E995BF7A9FC0C980188149808180C99DD
:1037B00008800D9801881498081A0D9908805CE11A
:1037C00000200E9D079069782C78090221433180F2
:1037D000E978AC780902214371808C464039042491
:1037E0002D1D024603468E46402900D328786146A7
:1037F00004291FD0052914D0062918D070463F2867
:103800003DD8159852F7FAF90006000E04D0B848D2
:10381000008D0006C00F30D002230120B54A0027DA
:1038200012E0697800290FD0B34A17230CE0B34A9D
:103830000F2309E0522802D0D22802D002E014203F
:1038400000E01520AE4A1F23002A1AD0984218D251
:10385000800010580490002813D000200890059094
:1038600070884038402803D32878052430716D1CB7
:10387000701D00900498B5E0FEE03027F0E033279B
:10388000EEE07088042872D10627E9E0522862D061
:103890000CDC4B283FD004DC41286AD0422858D1A8
:1038A00011E04C2820D0502853D140E0632830D07C
:1038B00004DC572818D061284BD19BE06C2864D0D9
:1038C000772846D109E00098297801700098641C97
:1038D000401CA4B26D1C009081E00498401C049030
:1038E0000178089881427AD10098A41C401C4108B4
:1038F0004900881C009068782A78000210430880EC
:103900000599AD1CA4B2002969D00890002005904B
:1039100065E00120FBE71022294600985BF7ECFBED
:10392000009810341030A4B21035009057E02046B3
:1039300040301499039088420BD8402229460098C1
:103940005BF7DAFB0098403000900398403584B272
:1039500045E0342743E00822294600985BF7CCFB7A
:10396000009808340830A4B20835009037E068E0C9
:10397000FFE70622294600985BF7BEFB0098A41DCE
:10398000801DA4B2AD1D009029E01498001B80B2E8
:1039900003903088001B001D81B20120079004981D
:1039A000401C04900098401C40084000009004987F
:1039B000007857281CD04228CBD100980170090A02
:1039C000417000982946801C0090039A5BF794FB95
:1039D00003980399201884B2009840180090049826
:1039E000401C0490007800281ED0002F17D01BE048
:1039F0004908E2E71498001B81B200980391401C2B
:103A000040084000009001200A460790294600988F
:103A10005BF772FB0399601884B20098DDE70D999B
:103A20000988A14200D331E70D980088A04208D34D
:103A300004990978002904D10799002903D1A042EB
:103A400001D034270CE00D99001B08800C980188E8
:103A50000098801B001F08180C99002F08800CD0BC
:103A60007088042809D0062807D04038402804D39D
:103A70000E984079707100E0342738460FB0F0BDE1
:103A8000FFB581B01F4616460C46104659F7F8F9A7
:103A900000257F2802D02189062909D03B463246DD
:103AA0002146019852F73DFC0546284605B0F0BD79
:103AB000C00601D50225F8E720780028F5D1300AA4
:103AC000A11D3EF7C6FDF0E70E49002008607047D3
:103AD0007047000030BCFC074CB9FC07C000004038
:103AE00010800000294100007671000058BFFC07DB
:103AF00048BEFC073803F2074003F2079C03F207B5
:103B0000D803F20700000840064C0125064E05E0E8
:103B1000E36807CC2B430C3C98471034B442F7D3EE
:103B2000FCF7FAFA0843FC072843FC07F8B5040C35
:103B30008BB2264682B25E430D0C1046370C5843BA
:103B4000360480190021794116466E43370C36043D
:103B50008019794126466E438919F8BD02E008C8EC
:103B6000121F08C1002AFAD170477047002001E0F7
:103B700001C1121F002AFBD17047F401040070CA72
:103B8000EA80D007064064327A3BFC07E88BFC07EA
:103B90003125FC07CF25FC0793DEF007F1DEF007A7
:103BA000F9DEF00749DFF00761DFF00777DFF007A4
:103BB00099DFF00719E3F007BDE5F007FDE3F00733
:103BC0001DE4F0073DE4F0077BE4F0078BE4F00729
:103BD000F5F9F007B1F7F007CFF7F007EBF7F007CB
:103BE00005F8F00719F8F00797F8F007AFF8F007B5
:103BF000DFCDF10767D0F107DBB9F007CD0DF20794
:103C0000B10EF207AD0EF207A90EF2078D21F007F3
:103C10009903FC070D1CFC078906FC07BB05FC0784
:103C2000A505FC07B57EF007837DF007E136FC07AC
:103C3000599EF107634CF1078D28FC07D110F2075C
:103C4000ED28FC07B111F2074112F2077912F207D1
:103C5000000000009303FC079503FC07B9C6F007BA
:103C6000D592F1076F37FC075F9DF1075F9CF10765
:103C7000813AFC07EB72F107B922F1076B04F107F7
:103C80006903FC072BA4F007F1D2F0075FBDF00732
:103C9000D5BDF00785BEF007DB2DF007752EF007C8
:103CA0001581F007DF7FF0070937F00700000000FB
:103CB0008303FC078B03FC076B03FC07F3C3F107CB
:103CC00075C4F1079703FC072726FC0700000000D6
:103CD00000000000000000000000000000000000E4
:103CE00000000000000000000000000000000000D4
:103CF00000000000000000000000000000000000C4
:103D000000000000000000000000000005000000AE
:103D1000C049FC07000400006892FC07AC020000E8
:103D20005C8EFC07000400002095FC077005000075
:103D30002003000000A60E0004000000D2000000D6
:103D4000320000003C000000010000000100000003
:103D50000200000002000000040000000300000058
:103D60000600000000000000020000000200000049
:103D7000000000000000000003000000030000003D
:103D80000500000005000000060000000A00000019
:103D90000A000000C8000000B80B0000020000008C
:103DA000B80B0000B80B000010000000D4010000A8
:103DB000CC010000700200006A0000000400000056
:103DC00001000000200000000A00000001000000C7
:103DD000E20400008A020000DC050000AF000000E1
:103DE000883BFC0700000000E03EFC07583FFC0752
:103DF0008C40FC07000000000104000000000000EF
:103E000000000000000000003F0000000000000073
:103E10002000800000C00000000084000000282274
:103E2000000000000000040000F7FFFF7F0000001A
:103E300030F0FF0F00000000000400000000000050
:103E40000000000000000000000000000000000072
:103E5000FF0F000001009909030099090700990963
:103E60000F0099091F1099092F2099095F5199098D
:103E7000080004900000000000000000030005D0CE
:103E80008B0035F010005CF0000010B0000018B09E
:103E900000001AB0030051F0000038B000003AB042
:103EA000000064B0000066B0000022B0000024B042
:103EB000010005D0000000000A0000800803049003
:103EC000000004F0030006D0000000000A0000809B
:103ED00008030490000004F0030006D00000000076
:103EE0004C41FC074F41FC075041FC076132FC0785
:103EF000130C00004B29F207150C00006127FC078A
:103F0000170C0000572BF207000C00002328F207C3
:103F100006FD00005728F20703FD00003728F207CE
:103F200008FD0000B328F2070EFD00000F29F2077C
:103F300005FD0000992BF207F03EFC070900000088
:103F400014000000ED14F207FD0000002126F20726
:103F5000FF00000000000000403FFC071C8DFC0734
:103F60000200000000004C044C04070100010203A1
:103F700004050600FF000000000000000000000033
:103F800014000000432FFC0700000000FF000000A9
:103F9000000000000000000000000000583FF20791
:103FA000A88DFC07040001000000000000000000D4
:103FB00000000000010D00004D2DFC07000D000069
:103FC000752DFC07000E00002F2EFC07010E0000CF
:103FD000CD2DFC07030E0000472EFC070A0E000043
:103FE000772EFC070C0E00008531F2071C0D000037
:103FF000C731F207100D00008530F2070F0E0000E8
:10400000F931F2072C0E00003932F207120C0000D1
:104010005332F207080E00006F32F207021400005C
:104020007D2FFC076334FC07C134FC07000000004F
:10403000000000005B29FC0700000000B934FC0709
:10404000000000006B29FC070000000000000000D9
:10405000000000007329FC078529FC078D29FC0757
:104060009F29FC0700000000CD29FC07D929FC0787
:104070000000000000000000192FFC07C530FC07FD
:10408000F12FFC07C132FC07F8000000F72CFC07F9
:10409000312AFC072440FC079F35FC077840FC07C9
:1040A000648DFC0700000000948DFC07FD000000FB
:1040B0005041FC07120000008332FC0700000000A2
:1040C0000000000000000000FF00000000000000F1
:1040D00000000000000000000000000000000000E0
:1040E00000000000FFEEDDCCBBAA9988776655443E
:1040F000332211002F2A93A6BDD84152AC0B109940
:104100002EC6FEED20EE8D0CE1F04A0CB325DC53FB
:104110006A68862D20EE8D0CE1F04A0CB325DC5345
:104120006A68862E20EE8D0CE1F04A0CB325DC5334
:104130006A68862F112233445566778888776655DA
:10414000443322110028032802290129000D1202FC
:104150004441FC07100000000100000010001000A6
:10416000E440FC074641FC0702000000010000009B
:1041700000000000000000000441FC0710000000E7
:104180000002000008000000000000004841FC0799
:104190000200000009000200020000000000000010
:1041A0004A41FC070200000001000000110011005C
:1041B000F442FC074641FC07020000000100000039
:1041C00000000000000000001441FC071000000087
:1041D0000002000008000000000000004841FC0749
:1041E00002000000090002000200000000000000C0
:1041F0004A41FC070200000001000000080008001E
:10420000C842FC074641FC07020000000100000014
:1042100000000000000000002441FC071000000026
:104220000002000008000000000000004841FC07F8
:10423000020000000900020002000000000000006F
:104240004A41FC07020000000100000008000800CD
:10425000E842FC074441FC07100000000100000098
:1042600010001000F440FC074641FC07020000006B
:104270000100000000000000000000003441FC07C5
:104280001000000000020000060000000000000016
:104290004841FC0702000000090002000200000083
:1042A000000000004A41FC0702000000010000007D
:1042B00010001000D442FC0748004F00080017000F
:1042C000010101001E000101437573746F6D2031FF
:1042D00000000000437573746F6D2053657276693A
:1042E0006365203200000000437573746F6D2032E7
:1042F000000000004D61676E65746F6D65746572D6
:1043000020446174610000002C43FC073043FC072B
:10431000900600006C3BFC07C08BFC07C08BFC07C1
:0C4320009C0200006C3BFC070E0000003B
:0400000507FC0111E2
:00000001FF
